S02B00002F73747564656E74732F72683638392F576172702D6669726D776172652F6275696C642F6B73646B0D
S1130000000600201D050000450500004505000010
S113001000000000000000000000000000000000DC
S11300200000000000000000000000004505000082
S11300300000000000000000450500004505000028
S11300404505000045050000450500004505000084
S11300504505000045050000450500004505000074
S1130060CF2C000045050000D92C000045050000F8
S11300704505000045050000450500004505000054
S11300804505000045050000450500004505000044
S11300909D0E0000B50E000045050000450500005A
S11300A04505000045050000450500004505000024
S11300B04505000045050000450500004505000014
S1130400FFFFFFFFFFFFFFFFFFFFFFFFFE3DFFFFBB
S11304100448054B10B5834203D0044B002B00D095
S1130420984710BDA8FFFF1FA8FFFF1F0000000092
S113043006480749091A8B10C90FC91810B5491085
S113044003D0044B002B00D0984710BDA8FFFF1F1A
S1130450A8FFFF1F0000000010B5074C2378002BF5
S113046009D1FFF7D5FF054B002B02D0044800E06B
S113047000BF0123237010BDA8FFFF1F0000000070
S113048014670000054B10B5002B03D00449054840
S113049000E000BFFFF7CCFF10BDC0460000000025
S11304A0ACFFFF1F14670000402292029A1A924682
S11304B07047C046154B002B00D1114B9D46FFF7EA
S11304C0F3FF00218B460F461148124A121A00F01E
S11304D0FFF80C4B002B00D098470B4B002B00D09F
S11304E098470020002104000D000B4800F02EF86E
S11304F000F064F82000290001F074F900F034F8E9
S113050000000800000000000000000000060020B9
S1130510A8FFFF1FB00200209505000072B6064830
S11305200649074A02600A6002F0DCFB02F01CFC88
S113053062B6FFF7BFFF000080E100E080E200E068
S1130540FFFFFFFF004800474505000010B501000C
S113055000230022002000F019FA10BD014B186896
S11305607047C04600FEFF1F084B10B50400002B67
S113057002D0002100F078FA054B1868836A002B3A
S113058000D09847200000F05BFCC046690A0000D8
S1130590404F000070B5074D074C641BA41005D0F4
S11305A0013CA300EB589847002CF9D106F0B8F8A9
S11305B070BDC046386700003C67000070B50C4D44
S11305C00C4E761BB61005D0002408CD0134984794
S11305D0A642FAD106F09EF8074D084E761BB610D7
S11305E005D0002408CD01349847A642FAD170BD45
S11305F03467000034670000346700003867000087
S113060010B5034B0100186800F00CF910BDC0468A
S113061000FEFF1F10B5034B0100186800F0ACF892
S113062010BDC04600FEFF1FF0B5C64600B50F2A38
S113063043D90B00032603431E400C000300002E85
S113064040D11500103D2D09AC462D01A84680442B
S113065000E03B00676825685F60E7681D60DF6055
S11306601F00A56810379D6010344345F1D16546DD
S11306700F230C2401352D01491913404519144247
S113068023D08C59AC5104369C1B032CF9D8032479
S1130690043B9B0801339B002240ED18C918561EE9
S11306A0002A07D0002300E02300CA5C5C1CEA5443
S11306B09E42F9D104BC9046F0BD0500561E002AA6
S11306C0F0D1F7E7561E0500ECE71A00F6E7C0463E
S11306D0F0B5050083074AD0541E002A44D0CEB298
S11306E00300032202E00135013C3DD301332E70A7
S11306F01342F8D1032C2FD9FF220A4015021543C7
S11307002A0415430F2C35D92700103F3F093E0119
S1130710B4461E001A001036664415605560956094
S1130720D5601032B242F8D10F260C2201373F01B6
S11307302640DB193700224217D03E1FB608B4000A
S1130740A4461A001C1D644420C2A242FCD1032406
S11307500136B6009B193C40002C05D0C9B21C19C7
S1130760197001339C42FBD1F0BD3400F4E714004E
S11307700300BFE72700E0E770B50500002915D0A6
S11307800C1F2368002B27DB280000F0CBF9244B37
S11307901A68002A05D0A2420CD921686018824246
S11307A024D0626028001C6000F0BEF970BDA34232
S11307B003D81A005368002BF9D111685018A042CD
S11307C01BD027D821686018834207D06360546027
S11307D0280000F0A9F9E9E7E418D5E718685B6890
S11307E084466144216063605460F1E71068526894
S11307F08446614421606260D4E720680918501877
S113080011608342E4D118685B68844661441160D6
S11308105360DDE70C2328002B6000F085F9C5E761
S1130820C4FFFF1FF8B50323CD1C9D430835060004
S11308300C2D2AD20C25A94229D8300000F072F9D7
S11308402A4F3A68002A0AD013685B1B04D441E09B
S113085023685B1B1FD522005468002CF8D17B68E9
S1130860002B3DD02900300000F042F8431C2AD070
S11308700323C41C9C43A04205D0211A300000F07D
S113088037F8431C1FD0256010E0002DD3DA0C2369
S113089000203360F8BD0B2B05D86368A2421DD03D
S11308A0536003E014002360E4182560300000F076
S11308B03BF9200007220B30231D9043C21AE9D0D4
S11308C01B1AA350E6E70C233000336000F02CF928
S11308D00020DFE70B2BE5D8140053683B60E5E705
S11308E00021300000F004F87860BBE7C4FFFF1F6C
S11308F0002370B5064C05000800236000F0A2FA3E
S1130900431C00D070BD2368002BFBD02B60F9E79B
S1130910AC02002003000A7801311A700133002A66
S1130920F9D1704710B5830727D00378002B26D060
S11309300300032102E01A78002A1CD001330B4281
S1130940F9D119680F4A104C8A188A4322420FD1F0
S1130950043319680B4A8A188A43224208D10433A3
S11309601968084A8A188A432242F1D000E0013308
S11309701A78002AFBD1181A10BD0300E1E7002001
S1130980FAE7C046FFFEFEFE80808080F0B5464652
S11309904F46D646C0B51F002F4B82B01C680500D9
S11309A00E009046002C2DD063681F2B50DC002DC8
S11309B01CD08822A0589146002834D0783282581E
S11309C094469A0091468144424649460A60012170
S11309D0624699400A43944680228A466146520000
S11309E081504946803A8F50022D16D000205A1C5F
S11309F002339B0062601E5102B01CBC90469946B3
S1130A00A246F0BD154C1C60154B002BCCD01B68C6
S1130A1001938823019AE250C6E7554684328158EF
S1130A200D438550E2E70F4B002B11D0842040008A
S1130A30FFF7E6FD00280BD08022002352008350EC
S1130A40043283504B460022E05094466368B8E772
S1130A5001204042D0E7C04658000020CCFFFF1FD1
S1130A600000000001060000F0B5DE464E46454693
S1130A7057462B4B88469B46E0B51E6883B00190D1
S1130A80002E45D088237568F7586C1E40D4013574
S1130A90AD00783375199A460AE0002F05D03B0063
S1130AA0A20080339B58434505D0043D013C2FD31D
S1130AB04346002BF1D173682A68013BA34222D03C
S1130AC000232B60002AF0D073689946002F18D0B9
S1130AD001235146A3407958194212D08220400084
S1130AE03858A1007958009018420ED101989047C7
S1130AF05B4672681B684A4501D1B342D5D01E00DB
S1130B00BEE79047F4E77460DCE708009047EFE73E
S1130B1003B03CBC90469946A246AB46F0BDC046E5
S1130B20580000207047C0467047C04602B4714662
S1130B3049084900095C49008E4402BC7047C0461C
S1130B4003B47146490840004900095E49008E44D7
S1130B5003BC7047002243088B4274D303098B42C1
S1130B605FD3030A8B4244D3030B8B4228D3030C79
S1130B708B420DD3FF22090212BA030C8B4202D31B
S1130B801212090265D0030B8B4219D300E0090A43
S1130B90C30B8B4201D3CB03C01A5241830B8B424C
S1130BA001D38B03C01A5241430B8B4201D34B0335
S1130BB0C01A5241030B8B4201D30B03C01A52419A
S1130BC0C30A8B4201D3CB02C01A5241830A8B421F
S1130BD001D38B02C01A5241430A8B4201D34B0208
S1130BE0C01A5241030A8B4201D30B02C01A52416C
S1130BF0CDD2C3098B4201D3CB01C01A5241830920
S1130C008B4201D38B01C01A524143098B4201D359
S1130C104B01C01A524103098B4201D30B01C01A84
S1130C205241C3088B4201D3CB00C01A52418308FE
S1130C308B4201D38B00C01A524143088B4201D32B
S1130C404B00C01A5241411A00D20146524110468B
S1130C507047FFE701B5002000F0F0F802BDC04680
S1130C600029F7D076E7704703460B437FD4002270
S1130C7043088B4274D303098B425FD3030A8B422C
S1130C8044D3030B8B4228D3030C8B420DD3FF2296
S1130C90090212BA030C8B4202D31212090265D064
S1130CA0030B8B4219D300E0090AC30B8B4201D317
S1130CB0CB03C01A5241830B8B4201D38B03C01A5E
S1130CC05241430B8B4201D34B03C01A5241030BD5
S1130CD08B4201D30B03C01A5241C30A8B4201D386
S1130CE0CB02C01A5241830A8B4201D38B02C01A31
S1130CF05241430A8B4201D34B02C01A5241030AA8
S1130D008B4201D30B02C01A5241CDD2C3098B428C
S1130D1001D3CB01C01A524183098B4201D38B0109
S1130D20C01A524143098B4201D34B01C01A5241AC
S1130D3003098B4201D30B01C01A5241C3088B42F1
S1130D4001D3CB00C01A524183088B4201D38B00DC
S1130D50C01A524143088B4201D34B00C01A52417E
S1130D60411A00D201465241104670475DE0CA0F55
S1130D7000D04942031000D34042534000229C4615
S1130D8003098B422DD3030A8B4212D3FC2289011F
S1130D9012BA030A8B420CD3890192118B4208D3F5
S1130DA0890192118B4204D389013AD0921100E057
S1130DB08909C3098B4201D3CB01C01A524183096B
S1130DC08B4201D38B01C01A524143098B4201D398
S1130DD04B01C01A524103098B4201D30B01C01AC3
S1130DE05241C3088B4201D3CB00C01A524183083D
S1130DF08B4201D38B00C01A5241D9D243088B4293
S1130E0001D34B00C01A5241411A00D20146634635
S1130E1052415B10104601D34042002B00D5494299
S1130E20704763465B1000D3404201B5002000F0D8
S1130E3005F802BD0029F8D016E770477047C04690
S1130E40FEE7C0460A4A0300116810B5002901D123
S1130E500849116010680849C3188B4206D9FFF786
S1130E607DFB0C2303600120404210BD1360FCE7AE
S1130E705C000020B0020020B00200208378022031
S1130E809842804140427047437A0020013B012B45
S1130E9003D90B78013001330B70704710B5002073
S1130EA003F054FC002803D00021080003F042FCA6
S1130EB010BD0000024A1368013313607047C04636
S1130EC07000002037B5002002F044FBC02300244A
S1130ED00D4A9B0013600D4A0D4D13600D4A20000E
S1130EE013600D4B2C716C71AC711A68FA239B0062
S1130EF053430A492B6003F077FC2900200001AA20
S1130F0003F0D8FC37BDC046189014541C901454F8
S1130F10C800002000A0145484FEFF1F9800002085
S1130F2010B58024002003F0A1FC0A4B64001C606F
S1130F30094B07201C60094B1C6002F0A5FD06202C
S1130F4002F0A2FD200002F09FFD002002F007FB4A
S1130F5010BDC046189014541C90145400A014548E
S1130F6010B5002002F000FB8023054A9B001360AB
S1130F70044A00200449136002F062FE10BDC0461A
S1130F800CA0145410A014547400002010B50020B8
S1130F9002F092FE80238220074A5B001360074A16
S1130FA04000136002F070FD0420FF3002F06CFD7D
S1130FB0002002F0DEFA10BD0CA0145410A014544A
S1130FC00023364A70B51360354A01201360354A50
S1130FD00133FF331360344A34491360344A1360D5
S1130FE0344A1360344A1360344A1360344A136039
S1130FF0344A14782500054004424DD00B60324930
S113100032480B60002101603148016031490B60B6
S113101031490B6031490B6031490B6031490B6038
S113102031490B601378DB0703D50220FF3002F04F
S11310301DFD092002F028FD0C2002F025FD0520ED
S113104002F022FD082002F01FFD0620FF3002F00E
S11310501BFD0E20FF3002F017FD8320400002F03C
S113106013FD0820FF3002F00FFD0C20FF3002F0CA
S1131070FDFC8220400002F007FD0420FF3002F056
S113108003FD072002F000FD062002F0FDFC802095
S1131090400002F0F9FC70BD0D60B0E70C901454F0
S11310A010901454149014541890145404A014540C
S11310B01C901454209014542490145430901454BC
S11310C000A0145480FEFF1F08A014540CA0145454
S11310D010A0145414A0145418A014541CA0145494
S11310E028A014542CA0145434A0145410B509206E
S11310F002F0CAFC10BD10B50C2002F0C5FC10BDF6
S1131100384B10B598423DD027D8374B984253D02E
S113111015D8C83B984244D009D8C83B984231D02E
S1131120324B984206D1052002F0A0FC2DE0304B52
S113113098423DD02F49002001F0BDFD2CE09623BC
S11311401B01984243D02C4B984247D02B4B9842DA
S1131150F0D1052002F08AFC31E0294B98422BD0D3
S113116007D8C83B98421CD0264B984220D0264B27
S1131170D7E7C8231B01984229D0244B98422DD08D
S1131180234BE4E7052002F07FFC082002F07CFCFE
S11311900620FF3002F078FC1E4B186802F021F89C
S11311A010BD052002F070FC082002F05FFCEFE7A0
S11311B0052002F05BFCF7E7052002F065FC08203F
S11311C002F062FC0620FF3002F050FCE4E7052048
S11311D002F05AFC082002F049FCF3E7052002F073
S11311E045FCF7E7280A0000980800006C07000097
S11311F034080000444F0000C4090000FC0800004B
S1131200B80B0000540B00008C0A0000E40C000032
S11312101C0C000088FEFF1F10B5FFF771FF0920AA
S113122002F024FC0C2002F02FFC8320400002F08A
S11312302BFC10BD10B5FFF763FF092002F024FC5E
S11312400C2002F013FC8320400002F00FFC10BDC0
S1131250AF220C4B10B5C3189BB29200934202D834
S1131260FFF7DAFF10BD084BC3189BB2934202D8B4
S1131270FFF7E0FFF6E702000449002001F01BFD40
S1131280F0E7C046F8F8FFFFD8F5FFFF714F000004
S113129010B5FFF72BFFFFF72EFF8320400002F06D
S11312A0E5FB024B186801F09CFF10BD88FEFF1F90
S11312B010B50400002901D0FFF782FE00210220AE
S11312C001F060F82100042001F05CF810BD10B5B5
S11312D0012420000021FFF7EBFF21003C20FFF751
S11312E0E7FFF6E7F0B5050085B00F001400012113
S11312F000209AB201F0E7F80390002D1CD01C499D
S1131300002001F0C5FA1B4D286801F06AFF1A4954
S1131310002001F0BDFA286801F063FF174900209E
S113132001F0B6FA286801F05CFF0020144901F0CE
S1131330AFFA286801F055FF0026124D12492B68B8
S11313406A6800200092320001F0B5FC380001F018
S113135001F903992A6800206B6800910B4901F098
S1131360AAFC002C02DD200001F03BFF0136E4E77B
S1131370A94F00007CFEFF1FD14F0000F34F000077
S11313806F5F000000D0034018500000245000009C
S1131390F0B591B0059218AA12780D910A921CAA80
S11313A012780EA90E921DAA12881E0008922122FC
S11313B05218D27F16AB09921FAA12881F780F9277
S11313C017AB20AA12781B7804000B92BB4203D3FC
S11313D00A9A974200D91F00059B002E06D1002BC4
S11313E006D15949002001F066FC01E0002BF8D138
S11313F000250898FFF72CFF2100002001F048FA8F
S1131400089C04950695039500230793079B199A56
S1131410934200DC95E00E9B002B04D001370A9B1D
S1131420FFB2BB42F0D2039A069B944647496344F9
S1131430002001F040FC322001F0D3FE099B049A05
S1131440434900930020039B01F035FC322001F056
S1131450C8FE2A003F49002001F02DFC322001F093
S1131460C0FE11B0F0BD029B3022FB180C936B46FA
S11314709B18187801210D9B9847002849D1039B9C
S113148001330393089B9C4204D9643CA4B220001A
S1131490FFF7DEFE002E26D0099AB37B9B1A5A4230
S11314A05341049AD31804930B9B002B0BD0337B2A
S11314B0029A717BB07B0091019027490020DBB236
S11314C0BA1801F0F8FB1B9B002B02DD180001F099
S11314D088FE029B01330293029B1A9A9342C2DB59
S11314E0079B013391E7059B099A1B7A9B1A5A4281
S11314F05341049AD31804930B9B002BE3D0059B10
S1131500029A1B7A30001549DBB2BA1801F0D3FBFA
S1131510D9E7022810D100200C9A114901F0CBFB25
S1131520069B013306930F9B9C42CCD26434A4B235
S11315302000FFF78DFEC6E70338434258412D18BB
S1131540C1E70023C7E7C046444F00007E500000B7
S113155096500000C7500000315000005650000063
S11315606B500000F0B591B00D9316AB0400100061
S113157004CB0C911F781AAB1B880E920F931BABF4
S11315801E881CAB1D78002C52D0FFF7E9FC601EAE
S1131590112847D8FFF7CAFA09252A2C2E463032DB
S11315A03436383A3C403E4642440F9B0C9A0793EB
S11315B00D9B00920693189B204A05930E9B20498D
S11315C00493199B1F4803933123029300230A9722
S11315D0099608950193FFF7DBFEFFF7D7FC11B0DE
S11315E0F0BD1949002001F053F9F6E71749F9E76E
S11315F01749F7E71749F5E71749F3E71749F1E7FB
S11316001749EFE71749EDE71749EBE71749E9E70A
S11316101749E7E71749E5E71749E3E71749E1E71A
S11316201749DFE722001749002001F044FBD4E703
S11316302000154901F02CF9D1E7C04660000020D4
S1131640E5240000DC500000EA50000015510000C1
S11316504651000076510000A6510000D35100000D
S1131660005200002C5200005A5200008652000022
S1131670B3520000DF5200000B5300003853000047
S11316806453000090530000E2530000030030381C
S1131690092805D91A00613A052A02D8573B1800CF
S11316A070471A00413A0020052AF9D8373BF6E77B
S11316B070B501F008F9040001F005F9FF260500F2
S11316C020003040FFF7E2FF040028003040FFF71D
S11316D0DDFF24012018C0B270BD70B501F0F3F82D
S11316E0060001F0F0F8050001F0EDF8040001F047
S11316F0EAF8FF22FA23642116401540303E1440D4
S11317009B00303D4D4373435A39303C4C435B1985
S113171010401B193038181870BD000070B50C004B
S1131720160088B00CAA157806A908800A4A05A8EC
S113173005700A4D12682D684A6004AA1670019358
S1131740009023000020029502F0DEFB002800D068
S1131750022008B070BDC04674FEFF1F78FEFF1F54
S1131760F7B56A46CB1DDB08DB00D31A02AF9D46F2
S11317700C000500FFF7A6FBFA2300219B0002AE34
S11317800193009433002A00080003F0EFF80400EA
S1131790FFF7C6FB002C00D00424BD462000F2BD98
S11317A010B50020014901F073F810BD0E5400007B
S11317B010B5094C0020210001F06AF82100002036
S11317C001F066F80549002001F062F804490020A0
S11317D001F05EF810BDC0463A5400006A5400009F
S11317E09B540000F0B5B9B025AC072200212000BD
S11317F0FEF76EFFFA4A01272C92032215AB2F93B2
S113180017AB309319AB32931DAB34931FAB3593A5
S113181021AB369323AB1BAE11A9002037932CAB1D
S11318201A712E91149327703396319401F08AFE25
S1131830380001F087FE8021EA4B0902196001F0AB
S1131840EFFC002300971A001900180001F042F879
S1131850E549002001F01CF8C82001F0C2FCE3496E
S1131860002001F015F8C82001F0BBFCE04900207D
S113187001F00EF8C82001F0B4FC3B00DD4A02215F
S1131880DD4801F0F1FC3900380001F0F9FC0020DA
S113189002F09AFE8C210025D84B2800299308AB2E
S11318A05B181D80023108AB5B1829A91D702A97AB
S11318B002F0B6FE3A00290011A8FEF709FF4820FD
S11318C0259B08A91993A28809180A80A2790230D5
S11318D008A909180A700322063808A909180A7009
S11318E01B93A28808A9B280A2790A38B271052292
S11318F032701593A28802260A87A27909180A7001
S1131900342108AA521816701793A288063008A921
S113191009180A80A279801908A909180A700422F2
S1131920063808A909180A701D93A2881C3008A952
S113193009180A80A279801908A909180A700822CE
S1131940063808A909180A701F93A2880C3008A940
S113195009180A80A279801908A909180A700921AE
S1131960063808AA121811702193A3880C3008AA0B
S113197012181380A379801908AA121813700A2365
S1131980063808AA121813706C2208AB9B181D7035
S113199014AA3B002FA801F035FE2900300000F006
S11319A0F1FC9749974802F047F8FFF709FB082034
S11319B0FF3002F05BF8C82001F013FC0820FF3070
S11319C002F062F8C82001F00CFC0820FF3002F09D
S11319D04DF8C82001F005FC0820FF3002F054F84F
S11319E0C82001F0FEFB0820FF3002F03FF8C820B9
S11319F001F0F7FB0820FF3002F046F81D20824971
S1131A0000F05CFDFFF744FC80231B0208932B00CD
S1131A102F0009950B9503330A937C49002000F0AD
S1131A2037FF7B4C206801F0DCFB7A49002000F092
S1131A302FFF206801F0D5FB3B00099A764900206E
S1131A4001F039F9206801F0CCFB744D744E7549EE
S1131A502A68089833680968019000910020724947
S1131A6001F029F9206801F0BCFB704B7049714A00
S1131A700020D2584B69096800916F4901F01BF9A5
S1131A80206801F0AEFB6D4900200A784B78897913
S1131A90D2B2DBB200916A4901F00DF9206801F07D
S1131AA0A0FB664B67491A7A1B7E0978D2B2DBB277
S1131AB000910020644901F0FEF8206801F091FBD8
S1131AC0624B63491A785B780969D2B2DBB2009140
S1131AD00020604901F0EFF8206801F082FB5E4BC2
S1131AE054489A7852495D4BD2B2C3584968002091
S1131AF000915B4901F0DFF8206801F072FB594B5B
S1131B0059491A6811AB1B78002001F0D4F82068F9
S1131B1001F067FB5549002000F0BAFE206801F08F
S1131B2060FB5349002000F0B3FE206801F059FB2C
S1131B305049002000F0ACFE206801F052FB4E49F1
S1131B40002000F0A5FE206801F04BFB4B4900206B
S1131B5000F09EFE206801F044FB4949002000F09B
S1131B6097FE206801F03DFB4649002000F090FEFE
S1131B70206801F036FB4449002000F089FE20680B
S1131B8001F02FFB4149002000F082FE206801F0A3
S1131B9028FB3F49002000F07BFE206801F021FB78
S1131BA03A000A9B3B49002001F085F8206801F0C7
S1131BB018FB3949002000F06BFE206801F011FB8E
S1131BC03649002000F064FE206801F00AFB344925
S1131BD0002000F05DFE206801F003FB62E0C046D7
S1131BE0890E0000A0020020CD540000E85400003B
S1131BF0EE54000064FEFF1F90FFFF1FE00701008A
S1131C00A0FEFF1F90FEFF1F60000020F55400009F
S1131C107CFEFF1F195500004B55000074FEFF1F8A
S1131C2084FEFF1F8CFEFF1F7F5500003C10000048
S1131C3000D0034000700440B75500000040064047
S1131C40ED550000005006401C56000000E007401F
S1131C5000ED00E04C56000000D0074034100000B6
S1131C608656000070000020BE560000EC560000AE
S1131C70F6560000135700002F5700004B57000082
S1131C80685700008F570000AE570000CD57000082
S1131C90F85700001B5800004A580000665800001E
S1131CA08A580000CB49002000F0F2FD206801F0C2
S1131CB098FAC949002000F0EBFD206801F091FA80
S1131CC0C649002000F0E4FD206801F08AFAC44906
S1131CD0002000F0DDFD206801F083FAC1490020F6
S1131CE000F0D6FD206801F07CFABF49002000F026
S1131CF0CFFD206801F075FABC49002000F0C8FD52
S1131D00206801F06EFABA49002000F0C1FD206895
S1131D1001F067FAB749002000F0BAFD206801F02D
S1131D2060FAB549002000F0B3FD206801F059FACB
S1131D3000F0C9FDFF2302000C901A400A2A00D1CA
S1131D40C8E210006138192800D9A9E0FEF7F8FEAE
S1131D501E00AA00BD00CD00D800E20023012E0120
S1131D603601B0010A0210022202630268026C0208
S1131D70A8007202750265FE7D02A800A8008B020D
S1131D80A80098029D4B0B93012345E69C49002033
S1131D9000F07EFD9B49002000F07AFD206801F0F0
S1131DA020FA9949002000F073FD9849002000F0C2
S1131DB06FFD9749002000F06BFD206801F011FAD7
S1131DC09449002000F064FD206801F00AFA924969
S1131DD0002000F05DFD206801F003FA8F49002027
S1131DE000F056FD206801F0FCF98D49002000F058
S1131DF04FFD206801F0F5F98A49002000F048FD04
S1131E00206801F0EEF98849002000F041FD2068C7
S1131E1001F0E7F98549002000F03AFD206801F05F
S1131E20E0F98349002000F033FD206801F0D9F97E
S1131E308049002000F02CFD206801F0D2F97E4991
S1131E40002000F025FD206801F0CBF97B4900203B
S1131E5000F01EFD206801F0C4F97949002000F06B
S1131E6017FD206801F0BDF97649002000F010FD4F
S1131E70206801F0B6F97449002000F009FD2068DB
S1131E8001F0AFF97149002000F002FD206801F073
S1131E90A8F900F018FDFF220240352A00D171E7AD
S1131EA06B490EE06B49002000F0F2FCFFF715FCD3
S1131EB028602A68684B9A4201D1684B2B602A68D3
S1131EC06749002000F0F7FEA7E56649002000F00E
S1131ED0DFFCFFF702FC306032685F4B9A4201D1AD
S1131EE05E4B336032686049EBE76049002000F0E4
S1131EF0CFFCFFF7F2FB5E4B5E4918601A68E0E71F
S1131F005D49002000F0C4FCFFF7D2FB5B490700E9
S1131F100200D6E75A49002000F0BAFCFFF7C8FBDC
S1131F20584D020029000400002000F0C4FE564968
S1131F30002000F0ADFCFFF7BBFB12AE020029004D
S1131F403070002000F0B7FE5049992C00D192E186
S1131F504F4B09981B6827AD28932C80FFF778F91D
S1131F6020226B469B181878FEF7FAFF494B13AAF8
S1131F701B68177002930123290000200193009627
S1131F8001F0C2FF021E03D00020434900F093FE7B
S1131F90FEF7FCFF41E54149002000F079FCFFF722
S1131FA09CFB83B21A003E4909938AE73D4900200D
S1131FB000F06EFC0120FFF7FBFB2EE53A49002000
S1131FC000F066FCFFF789FB83B21A0037490893D7
S1131FD077E7C046AE580000C8580000E358000038
S1131FE0015900001E5900003D5900005C590000D1
S1131FF076590000A1590000C1590000600000207A
S1132000D4590000DF5900001D5A00005F5A000037
S1132010A05A0000E05A0000105B00004D5B000075
S11320208C5B0000CA5B0000075C0000455C00009C
S1132030825C0000C15C0000FE5C0000275D0000C3
S1132040645D00009B5D0000D85D0000155E00002B
S1132050295E0000455E00000F27000010270000E5
S1132060735E0000935E0000C15E0000DB5E000052
S11320708CFEFF1F0A5F0000255F00005B5F00000D
S1132080725F0000A55F0000BB5F0000E45F00001A
S113209074FEFF1F78FEFF1F0A6000002B60000023
S11320A05760000079600000A7600000E360000052
S11320B03A008949002000F0FEFD00F004FC874945
S11320C00C90002000F0E4FB00F0FDFB84490D902F
S11320D0002000F0DDFB00F0F6FB82490E900020AA
S11320E000F0D6FBFFF7F9FA7F490500002000F065
S11320F0CFFBFFF7F2FA7D490600002000F0C8FB91
S1132100FFF7EBFA7A490400002000F0C1FBFFF767
S1132110CFFA089B0A9A0F90019376493B000295E7
S11321200096002000F0C7FD6A4620210C9B52183F
S1132130303B0F99581E83410E98127806910999E5
S113214030380491411E884101900D98A4B2303872
S1132150009039000A98DBB2059403960295FFF7C4
S113216001FA5AE46449002000F092FBFFF7AFF84B
S11321706249002000F08CFB20226B469B181878E3
S1132180FEF7EEFE0121089A002000F09CF900F011
S113219021FFFDE65A49002000F07AFB594900204E
S11321A000F076FBFFF784FA27AE57493070002021
S11321B000F06EFBFFF791FA30226B469B181D78F6
S11321C004003378099A6C2D15D10192089A4F496D
S11321D000920200002000F06EFD0025A54200DB05
S11321E01BE427AB1A7800230121FF200093FFF79B
S11321F095FA0135F2E7009245490200002000F00B
S11322005AFD0025A54200DB07E4012127A8FFF7BA
S1132210A7FA0135F6E70998FFF71AF8FFF7FDFB6F
S1132220FFF736F8FFF7F9FB0021022000F0AAF8C7
S1132230FFF7F3FB00210820F8E73149002000F004
S113224027FBFFF7ADFAFFF7E8FB0B9B3149002BA7
S113225011D03149002000F01BFBFFF729FA0B9B3A
S11322601870FFF7DAFB2D49002000F011FB2C4811
S113227000F0B7FF2B49002000F00AFBFFF7CDFB6D
S11322802949002000F004FB20226B469B18187893
S1132290FEF766FE2549002000F0FAFA00F013FB71
S11322A023490500002000F0F3FAFFF716FA86B27E
S11322B032002049002000F0FEFC206800F091FF6D
S11322C0E9B268394D42694132000120089BC9B224
S11322D0FFF708F81849CEE7006100003A610000F2
S11322E0636100007C610000BB610000E7610000E5
S11322F01F620000506200008D620000B0620000A6
S113230079600000BA620000D9620000F96200003E
S11323104B63000089630000C7630000FF63000093
S1132320102700001E6400002864000041640000BF
S11323306A640000B2640000EA6400001FB504008F
S113234001A9002002F094F9694601A802F0CEF830
S1132350009B68461C1901A9009402F04FF8012261
S113236001A9002002F0B0F91FBD00000022034BB8
S11323701A608022024B1206DA67704700A01C58CC
S113238004E100E070B50D000A2408281CD8FEF70B
S1132390CDFB051D2A3F54676C6F5C0001F0C8FA41
S11323A00524012810D0FFF7E1FF2800FFF7C6FF3E
S11323B00021080001F048F901210400002000F088
S11323C05FFF002C22D10024200070BD01F0B0FA80
S11323D006240128F8D0FFF7C9FF2800FFF7AEFF55
S11323E000210120E6E701F0A3FA08240128EBD03C
S11323F000F0C4FF002803D00121002000F040FFBA
S11324000021022001F020F90028DCD00924DBE7B8
S113241001F08EFA07240028D6D0FFF7A7FF280082
S1132420FFF78CFF0021032001F00EF9040001F0F6
S11324307FFA01210028C4D1C1E7FFF797FF2800E4
S1132440FFF77CFF00210420EEE70021082001F0C3
S1132450FBF8041EDAD10121080000F011FFB3E7F4
S11324600021052001F0F0F8D0E700210620F9E76B
S113247000210720F6E700000B0000B50C4A89B0E4
S1132480127806A90A800B4A12684A6005AA1070DD
S113249004A80370084B1B680090029301230020DA
S11324A0019301F031FD002800D0022009B000BDE5
S11324B06000002074FEFF1F78FEFF1FC223FF335D
S11324C008704B60704770B50D0001000920FFF7DC
S11324D0D3FF290004002A20FFF7CEFF2043C0B217
S11324E070BD000000B589B0030068460A001449B5
S11324F009780175182B1BD8D91F032001291CD971
S11325001049087806A908800F48006848606846A2
S113251003750E4B00201B68019202930C4B05AA15
S11325200093012301F0FDFC002806D0022004E002
S113253019001D3903201429E2D909B000BDC04691
S11325401C6500006000002074FEFF1F78FEFF1F62
S11325506800002070B5022104000120FFF7C2FFCB
S1132560304D2A7A6B7AD2B2DBB2002820D0002018
S11325702D4900F08DF902210320FFF7B3FF2A7AD9
S11325806B7AD2B2DBB2002825D00020264900F0B5
S11325907FF902210520FFF7A5FF2A7A6B7AD2B2D0
S11325A0DBB200282AD000201F4900F071F970BD69
S11325B0002C03D01D4900F07EFBDCE79B08920150
S11325C01A4380239B015A40194B20001949D21801
S11325D000F071FBCFE7002C03D0144900F06BFB33
S11325E0D7E79B0892011A4380239B015A40104B62
S11325F020001049D21800F05EFBCAE7002C03D07B
S11326000A4900F058FBD2E79B0892011A43802341
S11326109B015A40064B20000649D21800F04BFBA0
S1132620C5E7C046600000201E6500002565000067
S113263000E0FFFF1F5000000369C268934201D805
S113264080681B18013B981A7047F7B58368C46803
S113265001931F1B436805000E001819A418974224
S113266007D83A00FDF7E0FF019B6868E41A2200EE
S1132670F119FDF7D9FFEC60F7BD0023F7B50600AB
S11326801700C568019100933369B4689D421FD255
S1132690013B5B1B641BBC4200D93C009C4200D93B
S11326A01C007368220058190199FDF7BDFF009BB7
S11326B02D191B190093019B3F1B1B190193B36830
S11326C0AB4200D10025F560002FDDD10098FEBD9E
S11326D01B19DDE7022310B50F4C104A2361636117
S11326E00F4BA261E361C823A2640E4A2362E26431
S11326F000230422A3626362E362A3656365E36566
S113270022650949E01DFEF705F920000749FEF797
S113271001F92023A37110BDD0000020356500000D
S11327204C010020480100203E6500004265000085
S1132730F0B5274B85B01B780E0002900192002B58
S113274001D1FFF7C7FF1823029A00255343204AFB
S1132750D3185A6D9C6D0392944219D91B6D019D37
S11327601B1B9D4200D91D001827029B30005F43AC
S1132770174B2A00DF19FB6C76191919FDF754FF62
S1132780019B64195B1B01933B6DA34200D10024A0
S1132790039B019F1B1B9F4200D91F00002F0CD0DD
S11327A01823029A30005343094AED19D318D96CFF
S11327B03A000919FDF738FFE419002D05D0182354
S11327C0029A03485343C0188465280005B0F0BD3D
S11327D0D000002010B50B00EFF31084012181F329
S11327E010881900FFF7A4FF84F3108810BD0000BF
S11327F0F8B516001822451C55434243164B0F00EA
S11328005D199B18DC6A012C10D0022C1BD0002C03
S11328101FD12800FFF710FF864205D83200390087
S11328202800FFF712FF34002000F8BD2800FFF74E
S113283003FF3400864200D9040022003900280036
S1132840FFF703FFF0E732002800FFF716FF04004C
S1132850EAE70024E8E7C046D0000020F8B50B4BB7
S113286004001B780E001700002B01D1FFF732FF84
S1132870EFF31085012181F310883A003100200024
S1132880FFF7B6FF85F31088F8BDC046D0000020DE
S113289070B5050008000C00FEF744F821000200A2
S11328A02800FFF7DBFF70BD13B56B46DC1D01226A
S11328B021000020FFF78EFF012801D1207816BDEA
S11328C001204042FBE710B5FFF7EEFF0028FBDBD9
S11328D010BD0000F7B5164C0193237805000F00D6
S11328E01600002B01D1FFF7F5FE2369AB421CD97A
S11328F0EFF31082012181F31088002D0CD01823EE
S1132900691C59436B43675061184E600199E31881
S1132910196200219962596218204543089B641981
S1132920E36282F310880020FEBD01204042FBE7F1
S1132930D0000020826810B504004068531C834214
S113294005D820688154A360E3680133E360A2687A
S113295063689A4209D121682069FFF77FFFA36861
S1132960984203D001235B42E36010BD0023A360BF
S1132970FBE70000F0B5050017000800012685B04C
S11329800A9C02910093B84219D2009A0196964289
S113299000D2019201230B9A1A4003920B9A1A4215
S11329A002D1002C10D10024EB680126002B4BDB54
S11329B0009B012B1FD9013B00937E43F8E73900AC
S11329C0FEF7C8F80136DEE70B9B20269B0704D5EB
S11329D0009B1036002B00D0103E019BA342E3D293
S11329E031002800FFF7A6FFEB68013C002BDBDB7E
S11329F0002CF2D1D7E731000298FEF7ABF88742FA
S1132A00DBD902983100FEF72BF9114B0291195CC6
S1132A102800FFF78FFFEB68002B05DB390030003F
S1132A20FEF798F8BE4211D2039B002B0CD0002C69
S1132A300AD0019BA34207D220212800FFF77AFF86
S1132A40EB68013C002BF2DA05B0F0BD0600D8E7D4
S1132A5049650000F0B59FB00EAB099340230A937B
S1132A6000230E00150007900B930D900C93317802
S1132A700136002907D10C9B0393002B00DD09E1EB
S1132A800C981FB0F0BD252900D0B3E00027082220
S1132A90042006E0302B0DD1022300E001231F4364
S1132AA00E003378711C2D2BF8D0F3D8232B10D0C3
S1132AB02B2B0CD000240A213378721C18003038D8
S1132AC0092808D84C43303C16001C19F4E7074386
S1132AD0E6E71743E4E7002103912E2B0ED11600FD
S1132AE00A203278711C1300303B092B06D8039B53
S1132AF00E004343303BD3180393F2E704233178A9
S1132B000A0001369A43682A01D13178F8E7782916
S1132B1009D86F290BD8632967D017D8252969D01C
S1132B20582900D195E00C9B002BA0DAA3E770395B
S1132B3008000829F7D8FEF703F8A500F6FFF6FF0A
S1132B409400F6FF8300F6FFF6FF8C006429EAD1B7
S1132B502B681A1D1B682A60DA179818049301233E
S1132B6050400593092849DC039B059A0693934238
S1132B7000D20692002C05D0049B002B01DB7B07BE
S1132B8000D5013C02231F4202D0039B002B05D039
S1132B9001231F4202D1002C36D100240C9B059343
S1132BA0002BC0DB049B002B3ADA2D215B420493FB
S1132BB009A8FFF7BFFE0C9B002BB4DB03233B40AB
S1132BC0022B05D1039B002B02D1002C2CD1002415
S1132BD00C9B0593002BA6DB0A22039B0499019707
S1132BE0009409A8FFF7C6FE9DE72B6819681A1D13
S1132BF02A60C9B209A8FFF79DFE94E70A21FEF7EF
S1132C0033F8059B0133ACE7069BA342C6D22021CF
S1132C1009A8FFF78FFE0C9B013C002BBBDABDE734
S1132C207B07C8D52B21C3E7069BA342D0D2302112
S1132C3009A8FFF77FFE0C9B013C002BC5DAC7E710
S1132C400A22296801970B1D2B60039B00940968D5
S1132C50C7E7296801970B1D2B60039B0094102282
S1132C60F5E72B681A1D2A601C68217801340029B5
S1132C7000D158E709A8FFF75DFE0C9B0393002BD6
S1132C80F3DA50E729680B1D2B6000230193083306
S1132C900093E4E70B9A002A03D007980EA9FFF7E4
S1132CA0DDFD0C9B03930B9B0493049A039B9446B6
S1132CB063440C93E4E60EB403B503AB02CB01AA60
S1132CC00193FFF7C7FE02B008BC03B0184710B564
S1132CD0002000F0E7FE10BD10B5002001F052FD09
S1132CE010BD0000082310B5164A9178194202D08D
S1132CF091780B439370882100222220124B4901C2
S1132D005A501249124C08708020124940025850FF
S1132D101968114801401960195910480840C02128
S1132D2089040143195180210D4B1A7219767F3998
S1132D301A7059700B490A700C3299791142FCD1FE
S1132D4010BDC04600D007400070044000E00740BA
S1132D500410000044100000FFFFF3FFFFFFFFF02A
S1132D6000400640005006401249134810B5814205
S1132D7005D00022114B9B089B009A420FD1104BA7
S1132D80104A9960002310491048521A9A420AD1F5
S1132D9000210F4B0F4AD21A013A08D210BD8458B1
S1132DA08C500432E9E7CC5CC4540133EEE719706B
S1132DB00133F1E700000000000000000000000003
S1132DC000ED00E0E46800003C67000000FEFF1F27
S1132DD0A8FFFF1FB002002000230200180070B5F6
S1132DE0994202DCFDF740FF70BD5C00145F0133C3
S1132DF00019F5E770B5002405000E00200011004D
S1132E00A14202DCFDF7A6FE70BD6300EB5E013457
S1132E109B1B5B43C018F3E7F8B50E0004001100D8
S1132E2030001700FFF7D8FF3A000500010030001A
S1132E30FFF7E0FF256060602000F8BDF8B50221CF
S1132E4006000120FFF74EFB0025214FC0B23B7A5C
S1132E507A7ADBB2D2B2A84208D180259B019208CB
S1132E601343AD015D401B4BED18ADB202210320AD
S1132E70FFF738FB00243B7A7A7AC0B22DB2DBB27A
S1132E80D2B2A04208D180249B0192081343A4012A
S1132E905C40104BE418A4B202210520FFF722FB8A
S1132EA000233A7A797AC0B224B2D2B2C9B2984233
S1132EB008D193018A081A4380239B015340054A91
S1132EC09B189BB2300035807480B380F8BDC04637
S1132ED06000002000E0FFFFF0B587B06A4600AF55
S1132EE04B003B600733DB08DB00D21A9546FA60DF
S1132EF0D21AD31A954604000D009D460026BA60E6
S1132F007B603B68B34214D12A002000F968FFF7C4
S1132F1083FF20002A00B9680830FFF77DFF2000F6
S1132F202A0079681030FFF777FF2000BD4607B00C
S1132F30F0BD1023F818FFF781FF3B8AFA6893531A
S1132F407B8ABA689353BB8A7A6893530236D8E76C
S1132F50F7B51D0008AB1C781700A3009C4600239E
S1132F601E001A00019163450BD121001000FDF7EA
S1132F707BFE2100386061433000FDF7EBFD2860E3
S1132F80F7BDC15852180199C95804337618EAE7B5
S1132F9084B010B5029003910492059302000B00D3
S1132FA000200949FFF787FE059B049A0749002082
S1132FB0FFF781FE079B069A05490020FFF77BFE79
S1132FC010BC08BC04B018475965000075650000C2
S1132FD090650000F0B53949ADB00020FFF758FC0A
S1132FE037490020FFF754FC364B0CAC1900220083
S1132FF061C961C261C961C221C921C21A0014AD8B
S113300029002032C1CAC1C1C1CAC1C141CA41C11A
S11330101CA81A0001004032C1CAC1C1C1CAC1C141
S113302041CA41C124A90A00603343CB43C2FA27F1
S113303043CB43C2082603CB03C2BF00224900206E
S1133040FFF726FC0A2106A8FFF746FF6A460AABEB
S113305003CB03C206980799089A099BFFF798FFC8
S1133060013E380000F0BDF8002EE7D1082703AB7D
S113307002AA290020000097FFF76AFF134D3000D1
S11330802900FFF705FC124C039B2100029A300033
S1133090FFF711FE05AB04AA24A91CA80097FFF7AB
S11330A057FF29003000FFF7F3FB21003000039B9A
S11330B0029AFFF700FE30002DB0F0BDAB650000B2
S11330C0C0650000C04E0000CB650000D165000063
S11330D0DC6500000300417000201870586098609F
S11330E0704710B5437804000120FF2B08D000F08E
S11330F051FA63780133DBB2637000F03FFA0020C9
S113310010BD0020704770B504000D0000F042FAB5
S1133110E1682943E16000F031FA002070BD00004D
S113312000220A4B9A641A0040329A631A00303221
S11331309A621A0020329A611A0010329A60044A84
S11331401360044B9B60DB607047C046180200208C
S113315014020020680200200022024B1A60186842
S113316080B270470C007C5070B5437804000D00A9
S1133170002B0BD0002500F00DFA6378013BDBB285
S11331806370257000F0FAF9280070BD0220002950
S1133190FBD02378002B17D0FFF7DEFF6368A2680B
S11331A0834204D8C01A824206D30320EDE7C01A32
S11331B080235B02C018F6E700F0ECF900232370CB
S11331C000F0DCF90220E0E74B1CEED000F0E2F95D
S11331D00123237000F0D2F9FFF7BEFFA560606001
S11331E0E3E770B50500FFF7B7FF80260400760219
S11331F0FFF7B2FF0300844203D8031B9D42F7D2BA
S113320070BD301BC318F9E710B5012801D100F0D7
S1133210C1F910BD10B5012801D100F0AFF910BDFE
S113322010B5FFF77DFF01230020084A0849136009
S1133230084A094C1060086004212160074C216091
S113324007490B6007490860136010BD38800450BB
S11332500000845000000450000004510400045194
S113326004000C500000045310B5044C206021717C
S11332700020A2602373637310BDC046780200204F
S11332800422F0B587B005AC3B4E0190029120704A
S1133290617033790092834226D90022337B150072
S11332A0737301230092A3700393334F3B7BAB42B0
S11332B01DD8009B002B02D0029B012B48D101207A
S11332C0FFF7A2FF0C20019B002558433368181810
S11332D000F0C2F8019B012073710226FFF79AFFE8
S11332E0A6703B7BAB421AD8009807B0F0BDBA6811
S11332F0AB009B58002B0FD01A7903990A420BD0CC
S113330020001A6899689047002805D0029B7D73B5
S1133310002B1BD0052300930135EDB2C5E7BA6835
S1133320AB009B58002B0ED01A7932420BD02000F0
S11333301A6899689047002805D0029B7D73002B7A
S113334017D0062300930135EDB2CAE70523009395
S11333500023A370013DEDB2FF2DC5D0064BAA009A
S11333609B68D358002BF5D020001A6899689047C1
S1133370F0E706230093B7E778020020014B587961
S11333807047C0467802002013B50400002021785D
S11333900190022920D0032922D0012925D12279A4
S11333A001AB144800F0BEFF002814D1A3795A1EC3
S11333B09341114ADB01137063785A1E93410F4AFB
S11333C05B001370A2780E4B1A70E2780D4B1A70E2
S11333D062790D4B1A7016BD0100227901ABE0E74A
S11333E001A9044800F0E0FFDEE701A9014800F06C
S11333F07DFFD9E7004006401840865300408650C0
S1133400004006500140065018401650074A430930
S11334109B009B18F822C005120510401843802316
S11334205B051843002303607047C04628800440AE
S1133430F821084A43099B009B180905C2050A4064
S113344013438022520513431F2210401E3A824028
S11334501A60704728800440072373B50093002343
S11334600400104D1A000121280001F07DF920000C
S1133470FFF78AFF637A280000930023217A1A0059
S113348001F072F9E379084A9B041360074BA17AAF
S11334901D68280000F0A4FF2800E17A00F0A7FFCF
S11334A0002076BD0070044000700C5934660000A2
S11334B010B5054800F0DAFE044B1968C9B20131B1
S11334C0FDF748FB10BDC0460040064044801C5E2A
S11334D010B5FFF7EDFF10BD10B5054800F0C6FEAE
S11334E0044B1968C9B20131FDF734FB10BDC04665
S11334F0004006404480145810B5FFF7EDFF10BD9E
S11335000B4B1B68DBB2022B0CD0032B0DD000201D
S1133510834206D1074A106880221202904200D0EA
S113352018007047044B1868FBE7FA208000F8E79E
S113353000700C59A0020020A402002010B5FFF76F
S1133540DFFF10BD10B5024B185CFFF771FF10BD13
S1133550E665000010B57620FFF76AFF10BD10B5D0
S11335607620FFF753FF10BD10B56620FFF760FF0C
S113357010BD10B56620FFF749FF10BD044A13685B
S1133580002B04D0013B1360002B00D162B67047BE
S11335908802002072B6024A136801331360704730
S11335A08802002010B5064C064801F06FFB042881
S11335B001D1002010BD013C002CF5D10320F9E716
S11335C0EA03000000E0074010B50B4B0B490A78F2
S11335D0002A07D0084C0A4801F058FB012806D1FC
S11335E0002003E0013B002BF1D1032010BD013C7E
S11335F0002CF0D1F9E7C046EA03000002D00751DD
S113360000E00740F7B507000E0015000120019304
S1133610002F15D0002913D0FFF7F6FD094C102216
S113362000212000FDF754F827602671002D03D0F7
S1133630019BA560237363730120FFF7EBFD00205A
S1133640FEBDC0468C020020F0B5B14C8DB0029096
S11336500391237B01206373FFF7D6FD2379029A3C
S1133660934206D80120FFF7D5FD022738000DB09C
S1133670F0BD029A23689200D35809AC1D780193D7
S1133680039B2A002372029B2370019B6360022325
S11336909A430492012A01D0052D0AD101219D48A3
S11336A001F048FA002807D10120FFF7B3FD0127F4
S11336B0DCE70321072DF2D80123002763723C00C5
S11336C00593934E337BA3422AD80120FFF7A2FD32
S11336D0914800F0EFFD049B012B4AD101380228E8
S11336E035D9039B012B00D00DE106270120FFF7FC
S11336F08BFD0023012609AD6B72013CE4B2FF2C63
S113370000D1AFE0824BA2009B68D358002BF4D0C9
S11337101A793242F1D028001A6899689047ECE788
S1133720B268A3009B58002B0ED01A7905990A425F
S11337300AD01A68996809A89047002804D0039B06
S113374004277473012BC0D10134E4B2B9E7FFF745
S1133750D3FE724B9842C4D8FFF7AAFE704EB04213
S1133760BFD8FFF7B9FEB042BBD8FFF7B1FEB042F5
S1133770B7D8039B012B00D0C1E00A2D00D9BCE0CF
S11337802800FDF7D3F9060A0D1E879A7B822F7352
S11337907800002207AB1A702DE0032207ABFAE78A
S11337A05C4801F073FA012808D00021594801F05F
S11337B0D1F9FFF709FF071E00D057E7012207AB35
S11337C0E9E7544801F062FA042808D0022151487C
S11337D001F0C0F9FFF7E6FE071E00D046E7042219
S11337E007ABD8E7072207AB1A80019AD2789A7000
S11337F0019A1279DA702B00083B022B06D8019B40
S113380006AA5B799372019B9B79D372019B5B78C7
S1133810002B0AD0012D08D9019B02229978414B33
S113382000294DD019690A431A613A4807A901F0E1
S1133830B5F9002800D00327002D45D1FFF7C4FEB9
S1133840071E00D012E700270120FFF7DDFC029BD2
S11338502F4D0024AB73022309AE737201932B7BAB
S1133860A34236D80120FFF7D5FCFFE6082207ABB8
S1133870FF321A80BFE72C4A07ABFAE7022207ABF4
S11338801A700222FF329A80B5E7022207AB1A703F
S1133890264AF8E7022207AB1A70013A1D489A80BB
S11338A001F0F4F90128A6D000211A4801F052F9D8
S11338B0FFF78AFE071E9ED0D8E6052207AB6AE70B
S11338C0196991431961B0E7012DBDD1FFF76AFE73
S11338D0B6E7AA68A3009B58002B0BD01A7901996C
S11338E00A4207D030001A6899689047002801D02E
S11338F005276C730134E4B2B1E70327B6E6002F61
S113390000D13AE7F2E6002F00D0EFE6EDE6C0463C
S11339108C02002000E007400040064040420F00B7
S113392080841E0000ED00E0070300000102000097
S113393010B5064801F0AAF903000020012B03D0BA
S11339400B30042B00D10A3810BDC04600E00740FC
S1133950F7B5FF2403681D4A1E0A26401C40B30025
S11339609F581B4A05009B5830000193FFF7EAFD5E
S113397000222100380001F091F9019BA400E41811
S113398084232A795B05234352001A6080236A79D1
S11339905B0523431A609023AA795B052343120134
S11339A01A600C4B1C43EB791B042360EB79002B4E
S11339B00AD0094B9B57002B06D01F2213401E3AF6
S11339C09A401300054A1360F7BDC04638660000EC
S11339D040660000000018184866000000E100E09E
S11339E0F8B5FF2405000368114A180A20401C405A
S11339F083009F580F4A9E58FFF7A4FD380021000A
S1133A00012201F04BF96A682100380001F055F9F0
S1133A1088232A7AA400A4195B05234392001A6020
S1133A2098235B051C436B7A9B012360F8BDC04659
S1133A30386600004066000070B50C00002807D10D
S1133A40002C0FD170BD05000835FFF781FF280059
S1133A5003680133F7D1F3E7250020000C35FFF7A5
S1133A60BFFF2C0023680133F6D1EBE7FF22030AE2
S1133A70044913409B0059580123104083404B6074
S1133A807047C04638660000FF22030A0449134009
S1133A909B0059580123104083408B607047C046F7
S1133AA038660000084B8200D258942310B50232C5
S1133AB05B0513431B78002B02D000F03FFA10BDC6
S1133AC000F092FAFBE7C046E8650000020080239C
S1133AD00C325B0513431A78002AFCD0017170473D
S1133AE070B50D00084B8000C45820002900183020
S1133AF0FFF73AFB0328F8D0002801D004232374ED
S1133B00207CC0B270BDC0469C02002010B5104B92
S1133B108000C458E37C002B05D0237C052B02D005
S1133B20237C042B0BD10B4B18589823821C5B0568
S1133B30134300221A7001F02FF901236374A37C4C
S1133B40002B03D020001830FFF7CBFA10BDC0467D
S1133B509C020020E8650000F0B51700002289B03F
S1133B6005930EAB1B7805000393830032481E585F
S1133B7032481C5807AB1A80A37C880A049302239A
S1133B80FF3363828B0A0193CBB21E2801D11A0042
S1133B900B0A5B00D8B2019B00211E2B05D08F427B
S1133BA003D1012303995B1A59B20143CBB20293A7
S1133BB00299019807AB197001211E2801D15A708E
S1133BC04918A3603000E1600299FFF77FFF2800E5
S1133BD00F99FFF785FF237C002B0CD1002F0AD00F
S1133BE0059BA760E36030003978FFF76FFF28007A
S1133BF00F99FFF775FF237C039A1A4314D1019B95
S1133C001E2B01D0002F0FD0002301273000A3600A
S1133C10E76001F0AFF8029930003943FFF756FF2F
S1133C2028000F99FFF75CFF0023207CE374049BBA
S1133C30C0B2A37409B0F0BDE86500009C02002086
S1133C40F7B583000193184B8200D75805000C0088
S1133C500126002F26D1154B3900D35820002422E9
S1133C600193FCF735FD200039001830FFF732FAD4
S1133C702800FFF779FC019801F027F80A4BAA0005
S1133C80D4501F220A4B5B5D134032009A40094B0B
S1133C901A609C22019B52050233134380226674EE
S1133CA03E001A703000FEBD9C020020E865000052
S1133CB0EC65000000E100E0F7B50E4E8500AB595D
S1133CC0002701930C4B0400EA589C2302325B0545
S1133CD013431F70FFF74DFC084B01981A5D1F2317
S1133CE01A401E3B9340064A1830D367FFF709FA7F
S1133CF0AF51F7BD9C020020E8650000EC650000B0
S1133D0004E100E00A4B800070B5C5584B686A694D
S1133D100C0093420BD0074BC658FFF7DDFB002382
S1133D2001006268300000F0DFFF63686B6170BD02
S1133D309C020020E8650000F0B587B0049205936A
S1133D40334A0FAB1E7883009C580391627C0700B2
S1133D50002A03D10320207407B0F0BD002E01D146
S1133D601E220E922B4A3800D55800230399E36093
S1133D70A360237423606374A674FFF7C3FF9023C6
S1133D801021AA1C5B05134319708423E91C5B05ED
S1133D900B430221197098235B05134302934023BC
S1133DA0029A2800137000F0E5FF039B380019887D
S1133DB00E9B049A019301230093059BFFF7CCFE0D
S1133DC00D9B002B17D0237C002B11D10C9B2800BA
S1133DD0A3600D9BE3600C9B1978FFF777FE002E20
S1133DE003D038000E99FFF77BFE207CC0B2B3E706
S1133DF0237C042BF9D100230126029A1370EB785B
S1133E005B09334202D0280000F0C6FF6674ECE779
S1133E109C020020E8650000F0B589B0079311AB5F
S1133E201B780692364A029383009C580591627C63
S1133E300600002A03D10320207409B0F0BD029AC1
S1133E40002A01D11E32109200272E4A0599D55816
S1133E500E9B300023600F9BA7606360029BE760AA
S1133E60A37427746774FFF74DFF9023AA1C5B05A6
S1133E701A4310231370842304925B05EA1C134332
S1133E8002221A709823AA185B051A4340232800BB
S1133E901370039200F06EFF059B069A1988109B1D
S1133EA0300001930097079BFFF756FE237CDAB29C
S1133EB0BB4215D1049BA91C1A708C235B050B43D0
S1133EC00F99012900D108221A702B79029B002B2B
S1133ED003D030001099FFF703FE207CC0B2ACE79A
S1133EE0237C042BF9D10126039B1F70EB785B091B
S1133EF0334202D0280000F04FFF6674EDE7C0465D
S1133F009C020020E86500001FB501240394089C6E
S1133F100294079C0194069C0094FFF70DFF04B0E3
S1133F2010BD1FB501240394089C0294079C0194BE
S1133F30069C0094FFF770FF04B010BD244B70B5CD
S1133F408400E5588423EA1C5B05134302221A709B
S1133F509023A9185B050B431B78EA78DBB2920621
S1133F601DD5942252050A431278002A17D0194A03
S1133F70A458012B14D1EA781A4204D004332374D0
S1133F80FFF7C4FD0BE0E368013BE360002BF7D0CF
S1133F90A36828005A1CA2605978FFF797FD70BDEA
S1133FA06268013A6260002A06D08C235B05012A0C
S1133FB00AD000220B4309E0FFF7A8FD23685A1C2E
S1133FC022602A791A70EAE708220B431A70F5E78F
S1133FD0E86500009C020020C31C842040051843AF
S1133FE002230370704700000122F0B5904B81005A
S1133FF0CD5889B0EB1C0193EB7890261B091A402D
S113400005920122EB7876059B091A400292320050
S1134010AB1D1A43944612780090D2B207929422B0
S113402052051A431278AF1CD0B203909820400571
S113403003431878C0B206907E480C5831003943C7
S113404001910978C9B20491002A35D0079A002A4F
S11340500ED01023624628001370FFF7BDFF236BB8
S1134060002B52D06A4601211078626B98474CE0CD
S1134070069A002A20D0402228001A70FFF7ACFFCD
S113408023002C331B78002B03D1982252051743AD
S11340903B70236B002B04D06A4680211078626B3E
S11340A09847E37D002B04D0200080211830FFF7CF
S11340B02AF80A23237028E02800FFF78DFF059BC8
S11340C0002B24D0EB1C1E4310233370029B002BC7
S11340D010D0EB785B07DA0F002B48DB019B1A70DA
S11340E0236B002B04D06A4604211078626B984736
S11340F02B790AE0082323702C342378002B04D175
S113410098235B051F43029B3B7009B0F0BD029BE3
S1134110002BDED1049B012B54D1EB78049A13427B
S113412030D0019B029A1A702B7923002C331B7810
S1134130002B07D1039B002B04D198235B051F435D
S1134140039B3B70236B002B04D06A460821107834
S1134150626B9847A37D002B04D0200008211830FF
S1134160FEF7D1FF00236360E3602375CDE71023DE
S1134170019A1370236B002B04D06A460221107835
S1134180626B98476368002B50D028008022E36854
S11341900C3052051978024310780028FCD029719C
S11341A00133E3606368013B63606368002BACD157
S11341B0E3602375236B002BA7D06A461021107887
S11341C0626B53E72B79A268DBB2002A2CD02269F8
S11341D01370236901332361A368013BA360A368BF
S11341E0002B00D091E7039B002B11D123002C332B
S11341F01B78002B04D198235B051F43039B3B7062
S1134200E37D002B04D0200020211830FEF77BFF33
S1134210002363752361236B002B00D175E76A4685
S113422020211078626B21E7072343E7062341E747
S1134230E86500009C0200208422520502431278A3
S11342400300D0B2002A0CD0802001334005034380
S11342501878013843425841024B40421840024BFF
S1134260C0187047808D5B0080841E0010B50D4B14
S1134270821D13431A780400D3B2002A0FD0012BF5
S113428007D1FFF7D9FF084B08341C432378D840E3
S113429010BD0020022BFBD1044B1868F8E704483A
S11342A0F6E7C0460000081100009010A0020020AC
S11342B0006CDC020C4A811D0A4312780300D0B260
S11342C0012A04D002280BD000280BD17047802289
S11342D00133520513431B78002BF7D10220F5E775
S11342E00320F3E70520F1E70000081102009C23F6
S11342F018325B05134380221A700022064B0343D5
S11343001A70064B063018430378DAB2002BFBD13F
S1134310034B10000B6070470000081300000811E5
S1134320006CDC02F8B504000D0016001F00FFF756
S1134330C1FF012823D1002D25D08023621C5B05F9
S113434013431D70842302225B0523431A70220049
S1134350104B083213437200D2B21A7040220E4B33
S11343600E48234306341A7004432378012BFCD1EE
S1134370002D0DD10A4B334100203B60F8BD0228CB
S1134380DBD1012DD9D139002000FFF7AFFFD4E7ED
S1134390044BF0E70000901000000813000008111F
S11343A080841E0000127A0010B50A4C03002268B3
S11343B00120002A0CD0084A7F301A4310700748A5
S11343C0063303431A78022AFCD1002023680B60C9
S11343D010BDC046A0020020000008130000081110
S11343E09C23C9015B050343C9B219707047942328
S11343F049015B050343C9B21970704770B506687B
S11344000C0030002049FCF7A5FB1F4905003000D3
S1134410FCF726FC0E00E12130000901FCF79AFBB1
S1134420E121E08009013000FCF71AFC0E003C2178
S11344303000FCF78FFB3C2120813000FCF710FC9E
S11344406E22A1720321114BFF32238023889542EF
S11344500AD80F499B0700D10E490123CA5CAA421E
S11344600CD36380A58070BD01339BB223800B40C5
S1134470AD1A5A425A416E32FF32E7E70133AD1AA0
S11344800D2BEBD1EEE7C04680510100B2070000CE
S113449014660000ED6500000188114A03008A18C3
S11344A0002030B5812A17D85A88541E0B2C13D8F3
S11344B09C88651E1E2D0FD8DD88172D0CD81D89EC
S11344C03B2D09D89B7A3B2B06D88B0705D0054B8F
S11344D09B5CA3424041C0B230BD034BF8E7C046E9
S11344E04EF8FFFF14660000ED65000070B5134D33
S11344F0838802885B196E25FF35554344885B1910
S113450095085B190E4D6600755B5B19920710D018
S11345100B600A680B4BC4885343827A00899B184A
S1134520E122120162439B183C2242439B180B6018
S113453070BD022CECD8013BEAE7C0464A05F5FF02
S1134540FA650000805101008023084A1B021268AA
S11345509A4209D1A02310305B0518430368002B4D
S113456002D10133FF3303607047C046A00200202C
S11345700100802210B5002301245205103111439B
S11345800C600B6090214360490504601C300143BA
S11345900B608821490501430B60842149050143CF
S11345A010430B60036010BD0200902314325B05BE
S11345B0134300221A604260103201601A6070478F
S11345C003680B6070470000104B820070B5D5582B
S11345D0802204000E4B92051A602800FFF7C8FFE2
S11345E02800FFF7B1FF0B4B1F261A5D01231800AB
S11345F009493240095DC025314090408B40074A4B
S11346006D00505153511060136070BD246600005A
S11346103C80845E286600002966000000E100E01A
S1134620F7B50027114B8000C55808000E0001970C
S1134630FFF732FF0400B84216D001A93000FFF79B
S113464055FF3800FEF77AFF010080200002814206
S113465006D0FCF77FFA01000198FCF77BFA019081
S113466028000199FFF7A0FF2000FEBD246600008A
S1134670F7B50025124B8000C4580E00200001A994
S11346800195FFF79DFF2800FEF758FF05008020E5
S1134690000285420ED00B4B290004341C43FCF766
S11346A059FA2768019C29004443B8B2FCF752FA2E
S11346B024180194310001A8FFF7A0FEF7BDC046FD
S11346C02466000000007810F0B50027184B800025
S11346D085B0C55808000E0001920397FFF7DCFE71
S11346E00400B84203D10024200005B0F0BD30001E
S11346F003A9FFF7FBFE38002E68FEF71FFF010039
S113470080200002814206D0FCF724FA01000398BD
S1134710FCF720FA0390039BB342E4D3AB608823F5
S11347201C355B051D43019B9A002A60DCE7C046EB
S113473024660000044B8000C25888231C325B05A9
S1134740134389001960704724660000054B8000FC
S1134750C258882314325B0513431868431E9841DA
S1134760C0B27047246600006B46E0221B78D20278
S11347701B041340024A09070B4380180360704767
S113478044100000084B8200D258902310B5033225
S11347905B0513431B78002B02D000F013F910BD06
S11347A000F078F9FBE7C0462C6600009C210C4B16
S11347B00C4A8000C3588258002003324905114333
S11347C010B518710870942149050A4310701A7FB6
S11347D0824203D020331800FEF783FC10BDC0468C
S11347E0A80200202C660000F7B50C0005001B4B46
S11347F03022002187002000FE58FBF769FF2800C3
S1134800FEF7A8FEFEF768FE2060300000F0E5FA2F
S1134810200000212030FEF75DFCF31C019390235F
S1134820F21C5B051343102230001A70032100F0C0
S113483012FB3000002100F033FB094BFC50094B04
S11348405A5D1F231A401E3B9340074A1360982366
S1134850019A5B05134340221A70F7BD2C660000D1
S1134860A80200203066000000E100E0F8B50D4E1B
S113487085000D4BAF590400E85800F0AEFA38003B
S11348802030FEF73EFC094B20001A5D1F231A401E
S11348901E3B9340064AD367FEF761FE0023AB51EB
S11348A0F8BDC046A80200202C6600003066000057
S11348B004E100E00A4B800070B5C658094B0C00B7
S11348C0C358150030001A68096800F08DFA286092
S11348D0A37930006279217900F0CFFA70BDC04627
S11348E02C660000A8020020F7B51E4A83009C58DD
S11348F0050022790420002A16D11B4A9E5800295B
S113490003D0280001AAFFF7D5FF982300214020F7
S1134910F21C5B0513431970187027698F4204D188
S11349202800FFF743FF0020FEBD012323719423D9
S11349305B05A16133431B780720002BF4D0A368E7
S1134940191E02D019780133A360B1712369013BA8
S11349502361A3690133A3619C235B051A4380236C
S11349601370E0E7A80200202C660000F8B5134F8E
S1134970134C85002C59ED590127069E2777A26018
S11349802661E3606661FFF7AFFF002814D12000C1
S113499007992030FEF7E8FB0328F8D000280BD055
S11349A09C23002203355B052B4322711A70942348
S11349B003205B051D432A70F8BDC0462C66000029
S11349C0A802002010B51E4B8200D3581979002983
S11349D034D01C4951585A69002A11D09C225205DE
S11349E00A431278002A0BD08A79DC68D2B2002CF0
S11349F003D02270DA680132DA605A69013A5A61E6
S1134A001A69002A12D0942252050A431278002A05
S1134A100CD09A68141E02D0147801329A608C71FA
S1134A201A69013A1A619A6901329A611A69002A6B
S1134A3004D15B69002B01D1FFF7B8FE10BDC0465D
S1134A40A80200202C660000104A80008158002231
S1134A500F4B10B5C3580331581CC2779C20400536
S1134A600843DA621A701A835A629A621A630270ED
S1134A709420400501430A701A0038321278002A43
S1134A8003D00121181DFEF73EFB10BD2C6600006B
S1134A90A802002070B5254B8200D358591CC97F49
S1134AA0002942D022495258D96A002917DB94219F
S1134AB0490511430978002911D0D969CCB2596A42
S1134AC0002905D0DD6A002D02DD0C780131596220
S1134AD09471D96A0139D962596B01315963D96A20
S1134AE0002905DA9421D41C4905214300240C70C3
S1134AF0196B002911DD9C2149051143097800290E
S1134B000BD09279996AD2B2002903D00A709A6ABA
S1134B1001329A621A6B013A1A63DA6A002A04DCD7
S1134B201B6B002B01DCFFF78FFF70BDA802002078
S1134B302C660000012903D0032909D00020704706
S1134B4094235B0518430078431E9841C0B2F6E7EE
S1134B508423F6E7431C034849011843C9B2017092
S1134B607047C04600008812831C94204901400508
S1134B701843C9B201707047831C03488901184364
S1134B80C9B201707047C04600000813831C8C2012
S1134B90C90040051843C9B201707047F7B5040055
S1134BA0364EE31C1E43337808780D00DBB2072829
S1134BB060D8FBF7BBFF04192B0E192B2B45304B88
S1134BC001341C43002323703378012BFCD10020D3
S1134BD0FEBD012BFCD12A4B01341C43402323701E
S1134BE03378042BFCD1F2E70021012801D0042002
S1134BF00231337898423FD12000FFF7ABFF042104
S1134C00204A13698B43136130BFE0E70227B8429F
S1134C1007D100270B79BB4203D020004979FFF765
S1134C20ABFF194B01341C4327703378154ADBB2B0
S1134C300193019B01330193042311690B43E2E7C0
S1134C400421114B621C1A4311706A78A11C0B4396
S1134C501A70002A06D1AB78002B03D02000E97823
S1134C60FFF782FFAB79002BDFD02000E979FFF753
S1134C708DFFDAE70120ABE70320A9E7000030103D
S1134C800000881200ED00E000001010C31C024870
S1134C9018430078C0B2704700003010012314306C
S1134CA08B40012A04D1802212051043036070470F
S1134CB08022D204DB431043F8E701238B40002A0F
S1134CC001D0436070478360FCE70023C222037075
S1134CD043708370C37043718371C37103724272F2
S1134CE08372C37270470000F0B5002487B002934A
S1134CF0FA230126270025009B00534303900491C7
S1134D00009301947642AB000593194BAA009B18BB
S1134D1059880498A140FBF71DFF009B009AC31A11
S1134D20824200D9131AB3421FD2114AA900525C1D
S1134D3027000192002B02D00135322D13D101340A
S1134D40032C01D0002B0DD1029A002A00D013604D
S1134D503F220199BB0111400B43039ADBB253700C
S1134D6007B0F0BD00251E00CDE73300E4E7C046E0
S1134D704A660000942302305B0503431B78002B32
S1134D8005D088235B0518430423037070478023F0
S1134D901B0518433023F8E7942210B55205841CF0
S1134DA0224311780300CAB2022001290DD18021C7
S1134DB0C90421438024CD300870E40003331978FA
S1134DC0490908001040114200D110BD013C002CDB
S1134DD001D0C046F3E70920F7E70423C37000239A
S1134DE08370437003717047F0B5130B89B00126CB
S1134DF0039308230124764202939B19079004919C
S1134E000592019302270025631E0693210005984D
S1134E107943FBF79FFE049B834207D31B1AB342DB
S1134E2004D21E00069B03900295019301357F0076
S1134E30092D01D0002EE9D1082C02D00134002E16
S1134E40E0D1019B029A1B0103981343079ADBB23A
S1134E50537009B0F0BD842310B50224C21C5B0555
S1134E6013434A0022401A70902300195B0518432B
S1134E701023C9001940017010BD10B58C240330F3
S1134E806405C9000443C9B2217088219200490510
S1134E900143D2B20A70802252051043037010BD40
S1134EA08023012202305B0503430A401A708C23DD
S1134EB05B051843082389001940017070470000FE
S1134EC09001000090010000F4010000F4010000D2
S1134ED05802000058020000BC020000BC0200009E
S1134EE0E8030000D0070000B80B0000A00F00008A
S1134EF08813000070170000581B0000401F0000BA
S1134F000A000000140000001E0000002800000039
S1134F10320000003C000000460000005000000089
S1134F20D0070000B80B0000D00700007017000085
S1134F30A00F0000E8030000A00F0000701700009D
S1134F4004FEFF1F1B5B306D1B5B343B34336D1B56
S1134F505B313B33376D0D53616E6974792063683F
S1134F6065636B206661696C6564211B5B306D0A47
S1134F70001B5B306D1B5B343B34316D1B5B313B81
S1134F8033376D0D496E76616C696420737570708A
S1134F906C7920766F6C74616765205B25645D2095
S1134FA06D56211B5B306D0A004D6561737572652A
S1134FB06D656E74206E756D6265722C205254435B
S1134FC02D3E5453522C205254432D3E5450522CB7
S1134FD000204D4D413834353120782C204D4D4141
S1134FE03834353120792C204D4D41383435312039
S1134FF07A2C00205254432D3E5453522C205254A8
S1135000432D3E5450522C202320436F6E66696713
S1135010204572726F72730025752C2025642C2034
S113502025642C002025642C2025642C2025640A6A
S1135030000D09307825303278202D2D3E205B304C
S11350407825303278203078253032782030782531
S11350503032785D0A000D09307825303278202D01
S11350602D3E203078253032780A000D093078251D
S1135070303278202D2D3E202D2D2D2D0A000D0AA5
S11350800925642F25642073756363657373207227
S11350906174652E0A000D0925642F25642073753B
S11350A063636573736573206D61746368656420FD
S11350B07265662E2076616C7565206F6620307887
S11350C0253032782E0A000D09256420626164209F
S11350D0636F6D6D616E64732E0A0A000D0A4D4D87
S11350E04138343531513A0A0D000D0A0A424D4512
S11350F036383020526561642041626F7274656491
S11351002E204465766963652044697361626C6529
S113511064203A28000D0A09424D58303535616340
S113512063656C20526561642041626F72746564CA
S11351302E204465766963652044697361626C65F9
S113514064203A2820000D0A09424D58303535674D
S113515079726F20526561642041626F7274656474
S11351602E204465766963652044697361626C65C9
S113517064203A2820000D0A0920424D5830353564
S11351806D616720526561642041626F7274656469
S11351902E204465766963652044697361626C6599
S11351A064203A2820000D0A094D4147333131303B
S11351B020526561642041626F727465642E2044DC
S11351C065766963652044697361626C6564203A3D
S11351D02820000D0A094C334744323048205265D8
S11351E061642041626F727465642E20446576693F
S11351F063652044697361626C6564203A28200009
S11352000D0A094C505332354820526561642041DF
S1135210626F727465642E20446576696365204408
S1135220697361626C6564203A2820000D0A095490
S11352304353333437323520526561642041626F01
S1135240727465642E2044657669636520446973CD
S113525061626C6564203A2820000D0A09534934C0
S113526037303520526561642041626F7274656421
S11352702E204465766963652044697361626C65B8
S113528064203A2820000D0A094844433130303064
S113529020526561642041626F727465642E2044FB
S11352A065766963652044697361626C6564203A5C
S11352B02820000D0A0953493730323120526561E4
S11352C0642041626F727465642E2044657669635C
S11352D0652044697361626C6564203A2820000D7E
S11352E00A094343533831312052656164204162D5
S11352F06F727465642E2044657669636520446921
S11353007361626C6564203A2820000D0A09414DDE
S1135310473838333420526561642041626F7274B7
S113532065642E204465766963652044697361620F
S11353306C6564203A2820000D0A0941533732363F
S11353403220526561642041626F727465642E205C
S11353504465766963652044697361626C656420A1
S11353603A2820000D0A094153373236332052655A
S113537061642041626F727465642E2044657669AD
S113538063652044697361626C6564203A28200077
S11353900D09496E76616C6964207761727053659A
S11353A06E736F72446576696365205B25645D2066
S11353B070617373656420746F20726570656174C5
S11353C0526567697374657252656164466F7244AD
S11353D06576696365416E64416464726573732EB6
S11353E00A000D0A094144584C3336322052656193
S11353F0642041626F727465642E2044657669632B
S1135400652044697361626C6564203A28000D0963
S1135410506F776572757020636F6D6D616E642077
S11354206661696C65642E20424D583035352064C0
S1135430697361626C6564200A000D09506F7765B9
S113544072646F776E20636F6D6D616E642061624C
S1135450616E646F6E65642E20424D583035352080
S113546064697361626C65640A000D09506F776545
S113547072646F776E20636F6D6D616E642061621C
S1135480616E646F6E65642E204C3347443230483D
S11354902064697361626C65640A000D09506F775A
S11354A06572646F776E20636F6D6D616E642061E9
S11354B062616E646F6E65642E20544353333437D7
S11354C032352064697361626C65640A000A0A0AF1
S11354D00D426F6F74696E6720576172702C20697A
S11354E06E20332E2E2E2000322E2E2E2000312E12
S11354F02E2E0A0D000D0A0A0A0A5B202A09090940
S1135500095709610972097009287265762E2062AB
S1135510290909092A205D0A000D5B2020090909CF
S11355200920202020202043616D62726964676530
S1135530202F2050687973636F6D706C6162202036
S1135540200909090920205D0A0A000D0953757014
S1135550706C793D25646D562C0944656661756CE3
S113556074205461726765742052656164205265C9
S11355706769737465723D3078253032780A000D9E
S1135580094932433D25646B622F732C09535049FA
S11355903D25646B622F732C09554152543D25649B
S11355A06B622F732C094932432050756C6C2D5556
S11355B0703D25640A0A000D0953494D2D3E53439D
S11355C04743363D30782530327809095254432D0B
S11355D03E53523D30782530327809095254432DD8
S11355E03E5453523D3078253032780A000D094D2F
S11355F043475F43313D3078253032780909094DFE
S113560043475F43323D30782530327809094D43B2
S1135610475F533D3078253032780A000D094D43F9
S1135620475F53433D3078253032780909094D43AB
S1135630475F4D433D30782530327809094F534355
S11356405F43523D3078253032780A000D09534DBE
S1135650435F504D50524F543D30782530327809D5
S11356600909534D435F504D4354524C3D30782506
S113567030327809095343422D3E5343523D30782A
S1135680253032780A000D09504D435F5245475387
S1135690433D30782530327809090953494D5F5329
S11356A0434743343D307825303278095254432DF2
S11356B03E5450523D3078253032780A0A000D09A4
S11356C025647320696E205254432048616E646CD3
S11356D0657220746F2D646174652C0925642050F3
S11356E06D6772204572726F72730A000D53656C98
S11356F06563743A0A000D2D202761273A207365EB
S1135700742064656661756C742073656E736F7262
S11357102E0A000D2D202762273A20736574204934
S11357203243206261756420726174652E0A000D33
S11357302D202763273A2073657420535049206233
S113574061756420726174652E0A000D2D20276432
S1135750273A207365742055415254206261756460
S113576020726174652E0A000D2D202765273A20CA
S11357707365742064656661756C7420726567690D
S11357807374657220616464726573732E0A000D0C
S11357902D202766273A2077726974652062797410
S11357A06520746F2073656E736F722E0A000D2D61
S11357B0202767273A207365742064656661756CD9
S11357C074205353535550504C592E0A000D2D201C
S11357D02768273A20706F776572646F776E20634D
S11357E06F6D6D616E6420746F20616C6C207365E5
S11357F06E736F72732E0A000D2D202769273A20CD
S11358007365742070756C6C2D757020656E6162A3
S11358106C652076616C75652E0A000D2D20276A53
S1135820273A207265706561742072656164207224
S1135830656720307825303278206F6E2073656E6E
S1135840736F72202325642E0A000D2D20276B27E9
S11358503A20736C65657020756E74696C2072658E
S11358607365742E0A000D2D20276C273A2073656A
S11358706E64207265706561746564206279746514
S1135880206F6E204932432E0A000D2D20276D27EC
S11358903A2073656E642072657065617465642076
S11358A062797465206F6E205350492E0A000D2DC5
S11358B020276E273A20656E61626C65205353532E
S11358C05550504C592E0A000D2D20276F273A2091
S11358D064697361626C65205353535550504C593D
S11358E02E0A000D2D202770273A207377697463E0
S11358F06820746F20564C5052206D6F64652E0AD8
S1135900000D2D202772273A20737769746368206D
S1135910746F2052554E206D6F64652E0A000D2D54
S1135920202773273A20706F776572207570206185
S11359306C6C2073656E736F72732E0A000D2D20CC
S11359402774273A2064756D702070726F636573D5
S1135950736F722073746174652E0A000D2D2027F5
S113596075273A2073657420493243206164647258
S11359706573732E0A000D2D202778273A20646959
S11359807361626C652053574420616E64207370A8
S1135990696E20666F7220313020736563732E0A3E
S11359A0000D2D20277A273A2064756D7020616CD4
S11359B06C2073656E736F727320646174612E0A58
S11359C0000D456E7465722073656C656374696F50
S11359D06E3E20000D0953656C6563743A0A000D30
S11359E0092D20273127204144584C3336320909E8
S11359F00928307830302D2D30783244293A20313E
S1135A002E3656202D2D20332E35562028636F6DCB
S1135A1070696C6564206F757429200A000D092D66
S1135A202027322720424D58303535616363656C39
S1135A3020090928307830302D2D30783346293A22
S1135A4020322E3456202D2D20332E365620286316
S1135A506F6D70696C6564206F757429200A000D80
S1135A60092D2027332720424D5830353567797268
S1135A706F09090928307830302D2D3078334629C4
S1135A803A20322E3456202D2D20332E36562028FF
S1135A90636F6D70696C6564206F757429200A00EA
S1135AA00D092D2027342720424D583035356D619E
S1135AB06709090928307834302D2D30783532299A
S1135AC03A20322E3456202D2D20332E36562028BF
S1135AD0636F6D70696C6564206F757429200A00AA
S1135AE00D092D20273527204D4D413834353151AE
S1135AF009090928307830302D2D30783331293A8E
S1135B0020312E393556202D2D20332E36560A00BD
S1135B100D092D20273627204C50533235480909CA
S1135B200928307830382D2D30783234293A203114
S1135B302E3756202D2D20332E36562028636F6D98
S1135B4070696C6564206F757429200A000D092D35
S1135B5020273727204D414733313130090909289F
S1135B60307830302D2D30783131293A20312E39AA
S1135B703556202D2D20332E36562028636F6D7018
S1135B80696C6564206F757429200A000D092D2045
S1135B902738272048444331303030090909283058
S1135BA07830302D2D30783146293A20332E305636
S1135BB0202D2D20352E30562028636F6D70696C92
S1135BC06564206F757429200A000D092D2027397A
S1135BD027205349373032310909092830783030C9
S1135BE02D2D30783046293A20312E3956202D2D4E
S1135BF020332E36562028636F6D70696C656420DF
S1135C006F757429200A000D092D20276127204C67
S1135C1033474432304809090928307830462D2D5D
S1135C2030783339293A20322E3256202D2D203324
S1135C302E36562028636F6D70696C6564206F750D
S1135C407429200A000D092D2027622720424D4582
S1135C5036383009090928307841412D2D307846ED
S1135C6038293A20312E3656202D2D20332E365603
S1135C702028636F6D70696C6564206F75742920CA
S1135C800A000D092D202764272054435333343749
S1135C90323509090928307830302D2D30783144D7
S1135CA0293A20322E3756202D2D20332E335620DC
S1135CB028636F6D70696C6564206F757429200AA0
S1135CC0000D092D20276527205349343730350925
S1135CD00909286E2F61293A202020202020202025
S1135CE0322E3756202D2D20352E35562028636F21
S1135CF06D70696C6564206F757429200A000D0944
S1135D002D202766272050414E31333236090909A8
S1135D10286E2F61292028636F6D70696C6564207B
S1135D206F757429200A000D092D20276727204349
S1135D30435338313109090928307830302D2D305A
S1135D40784646293A20312E3856202D2D20332EE0
S1135D5036562028636F6D70696C6564206F7574A6
S1135D6029200A000D092D2027682720414D473896
S1135D7038333409090928307830302D2D3F293A39
S1135D80203F56202D2D203F562028636F6D7069CB
S1135D906C6564206F757429200A000D092D202775
S1135DA06A272041533732363209090928307830BE
S1135DB0302D2D30783242293A20322E3756202D7C
S1135DC02D20332E36562028636F6D70696C656400
S1135DD0206F757429200A000D092D20276B2720B8
S1135DE041533732363309090928307830302D2DA4
S1135DF030783242293A20322E3756202D2D203346
S1135E002E36562028636F6D70696C6564206F753B
S1135E107429200A000D09456E7465722073656C3F
S1135E20656374696F6E3E20000D09496E76616C7E
S1135E3069642073656C656374696F6E20272563DC
S1135E402720210A000D0A09536574204932432092
S1135E5062617564207261746520696E206B627082
S1135E60732028652E672E2C2027303030312729C7
S1135E703E20000D0A094932432062617564207294
S1135E806174652073657420746F202564206B62CF
S1135E902F73000D0A095365742053504920626121
S1135EA07564207261746520696E206B6270732062
S1135EB028652E672E2C20273030303127293E20AC
S1135EC0000D0A095350492062617564207261749F
S1135ED0653A202564206B622F73000D0A0953650F
S1135EE07420554152542062617564207261746556
S1135EF020696E206B6270732028652E672E2C201B
S1135F00273030303127293E20000D0A09554152EF
S1135F1054206261756420726174653A202564209E
S1135F206B622F73000D0A09456E74657220322D61
S1135F306E7962626C65207265676973746572203C
S1135F4068657820616464726573732028652E67C0
S1135F502E2C2027336527293E20000D0A09456E83
S1135F607465726564205B3078253032785D2E0A62
S1135F700A000D0A09456E74657220493243206196
S1135F806464722E2028652E672E2C202730662705
S1135F9029206F72202739392720666F72205350C9
S1135FA049203E20000D0A09456E7465726564201F
S1135FB05B3078253032785D2E0A000D0A09456E73
S1135FC074657220686578206279746520746F2026
S1135FD073656E642028652E672E2C202730662773
S1135FE0293E20000D0A09535049207772697465CF
S1135FF0206661696C65642E204144584C33363206
S11360002044697361626C6564000D0A0949324376
S1136010207772697465206661696C65642C2065FB
