S02B00002F73747564656E74732F72683638392F576172702D6669726D776172652F6275696C642F6B73646B0D
S1130000000600201D050000450500004505000010
S113001000000000000000000000000000000000DC
S11300200000000000000000000000004505000082
S11300300000000000000000450500004505000028
S11300404505000045050000450500004505000084
S11300504505000045050000450500004505000074
S1130060F7220000450500000123000045050000BB
S11300704505000045050000450500004505000054
S11300804505000045050000450500004505000044
S11300909D0E0000B50E000045050000450500005A
S11300A04505000045050000450500004505000024
S11300B04505000045050000450500004505000014
S1130400FFFFFFFFFFFFFFFFFFFFFFFFFE3DFFFFBB
S11304100448054B10B5834203D0044B002B00D095
S1130420984710BDA8FFFF1FA8FFFF1F0000000092
S113043006480749091A8B10C90FC91810B5491085
S113044003D0044B002B00D0984710BDA8FFFF1F1A
S1130450A8FFFF1F0000000010B5074C2378002BF5
S113046009D1FFF7D5FF054B002B02D0044800E06B
S113047000BF0123237010BDA8FFFF1F0000000070
S1130480084B0000054B10B5002B03D00449054868
S113049000E000BFFFF7CCFF10BDC0460000000025
S11304A0ACFFFF1F084B0000402292029A1A9246AA
S11304B07047C046154B002B00D1114B9D46FFF7EA
S11304C0F3FF00218B460F461148124A121A00F01E
S11304D0FFF80C4B002B00D098470B4B002B00D09F
S11304E098470020002104000D000B4800F02EF86E
S11304F000F064F82000290000F00AFF00F034F84E
S113050000000800000000000000000000060020B9
S1130510A8FFFF1F780200209505000072B6064868
S11305200649074A02600A6001F0F0FE01F030FF5C
S113053062B6FFF7BFFF000080E100E080E200E068
S1130540FFFFFFFF004800474505000010B501000C
S113055000230022002000F019FA10BD014B186896
S11305607047C04600FEFF1F084B10B50400002B67
S113057002D0002100F078FA054B1868836A002B3A
S113058000D09847200000F05BFCC046690A0000D8
S11305907841000070B5074D074C641BA41005D0CA
S11305A0013CA300EB589847002CF9D104F0B2FAAF
S11305B070BDC0462C4B0000304B000070B50C4D94
S11305C00C4E761BB61005D0002408CD0134984794
S11305D0A642FAD104F098FA074D084E761BB610DD
S11305E005D0002408CD01349847A642FAD170BD45
S11305F0284B0000284B0000284B00002C4B000027
S113060010B5034B0100186800F00CF910BDC0468A
S113061000FEFF1F10B5034B0100186800F0ACF892
S113062010BDC04600FEFF1FF0B5C64600B50F2A38
S113063043D90B00032603431E400C000300002E85
S113064040D11500103D2D09AC462D01A84680442B
S113065000E03B00676825685F60E7681D60DF6055
S11306601F00A56810379D6010344345F1D16546DD
S11306700F230C2401352D01491913404519144247
S113068023D08C59AC5104369C1B032CF9D8032479
S1130690043B9B0801339B002240ED18C918561EE9
S11306A0002A07D0002300E02300CA5C5C1CEA5443
S11306B09E42F9D104BC9046F0BD0500561E002AA6
S11306C0F0D1F7E7561E0500ECE71A00F6E7C0463E
S11306D0F0B5050083074AD0541E002A44D0CEB298
S11306E00300032202E00135013C3DD301332E70A7
S11306F01342F8D1032C2FD9FF220A4015021543C7
S11307002A0415430F2C35D92700103F3F093E0119
S1130710B4461E001A001036664415605560956094
S1130720D5601032B242F8D10F260C2201373F01B6
S11307302640DB193700224217D03E1FB608B4000A
S1130740A4461A001C1D644420C2A242FCD1032406
S11307500136B6009B193C40002C05D0C9B21C19C7
S1130760197001339C42FBD1F0BD3400F4E714004E
S11307700300BFE72700E0E770B50500002915D0A6
S11307800C1F2368002B27DB280000F0CBF9244B37
S11307901A68002A05D0A2420CD921686018824246
S11307A024D0626028001C6000F0BEF970BDA34232
S11307B003D81A005368002BF9D111685018A042CD
S11307C01BD027D821686018834207D06360546027
S11307D0280000F0A9F9E9E7E418D5E718685B6890
S11307E084466144216063605460F1E71068526894
S11307F08446614421606260D4E720680918501877
S113080011608342E4D118685B68844661441160D6
S11308105360DDE70C2328002B6000F085F9C5E761
S1130820C4FFFF1FF8B50323CD1C9D430835060004
S11308300C2D2AD20C25A94229D8300000F072F9D7
S11308402A4F3A68002A0AD013685B1B04D441E09B
S113085023685B1B1FD522005468002CF8D17B68E9
S1130860002B3DD02900300000F042F8431C2AD070
S11308700323C41C9C43A04205D0211A300000F07D
S113088037F8431C1FD0256010E0002DD3DA0C2369
S113089000203360F8BD0B2B05D86368A2421DD03D
S11308A0536003E014002360E4182560300000F076
S11308B03BF9200007220B30231D9043C21AE9D0D4
S11308C01B1AA350E6E70C233000336000F02CF928
S11308D00020DFE70B2BE5D8140053683B60E5E705
S11308E00021300000F004F87860BBE7C4FFFF1F6C
S11308F0002370B5064C05000800236000F0A2FA3E
S1130900431C00D070BD2368002BFBD02B60F9E79B
S11309107402002003000A7801311A700133002A9E
S1130920F9D1704710B5830727D00378002B26D060
S11309300300032102E01A78002A1CD001330B4281
S1130940F9D119680F4A104C8A188A4322420FD1F0
S1130950043319680B4A8A188A43224208D10433A3
S11309601968084A8A188A432242F1D000E0013308
S11309701A78002AFBD1181A10BD0300E1E7002001
S1130980FAE7C046FFFEFEFE80808080F0B5464652
S11309904F46D646C0B51F002F4B82B01C680500D9
S11309A00E009046002C2DD063681F2B50DC002DC8
S11309B01CD08822A0589146002834D0783282581E
S11309C094469A0091468144424649460A60012170
S11309D0624699400A43944680228A466146520000
S11309E081504946803A8F50022D16D000205A1C5F
S11309F002339B0062601E5102B01CBC90469946B3
S1130A00A246F0BD154C1C60154B002BCCD01B68C6
S1130A1001938823019AE250C6E7554684328158EF
S1130A200D438550E2E70F4B002B11D0842040008A
S1130A30FFF7E6FD00280BD08022002352008350EC
S1130A40043283504B460022E05094466368B8E772
S1130A5001204042D0E7C04658000020CCFFFF1FD1
S1130A600000000001060000F0B5DE464E46454693
S1130A7057462B4B88469B46E0B51E6883B00190D1
S1130A80002E45D088237568F7586C1E40D4013574
S1130A90AD00783375199A460AE0002F05D03B0063
S1130AA0A20080339B58434505D0043D013C2FD31D
S1130AB04346002BF1D173682A68013BA34222D03C
S1130AC000232B60002AF0D073689946002F18D0B9
S1130AD001235146A3407958194212D08220400084
S1130AE03858A1007958009018420ED101989047C7
S1130AF05B4672681B684A4501D1B342D5D01E00DB
S1130B00BEE79047F4E77460DCE708009047EFE73E
S1130B1003B03CBC90469946A246AB46F0BDC046E5
S1130B20580000207047C0467047C04602B4714662
S1130B3049084900095C49008E4402BC7047C0461C
S1130B4003B47146490840004900095E49008E44D7
S1130B5003BC7047002243088B4274D303098B42C1
S1130B605FD3030A8B4244D3030B8B4228D3030C79
S1130B708B420DD3FF22090212BA030C8B4202D31B
S1130B801212090265D0030B8B4219D300E0090A43
S1130B90C30B8B4201D3CB03C01A5241830B8B424C
S1130BA001D38B03C01A5241430B8B4201D34B0335
S1130BB0C01A5241030B8B4201D30B03C01A52419A
S1130BC0C30A8B4201D3CB02C01A5241830A8B421F
S1130BD001D38B02C01A5241430A8B4201D34B0208
S1130BE0C01A5241030A8B4201D30B02C01A52416C
S1130BF0CDD2C3098B4201D3CB01C01A5241830920
S1130C008B4201D38B01C01A524143098B4201D359
S1130C104B01C01A524103098B4201D30B01C01A84
S1130C205241C3088B4201D3CB00C01A52418308FE
S1130C308B4201D38B00C01A524143088B4201D32B
S1130C404B00C01A5241411A00D20146524110468B
S1130C507047FFE701B5002000F0F0F802BDC04680
S1130C600029F7D076E7704703460B437FD4002270
S1130C7043088B4274D303098B425FD3030A8B422C
S1130C8044D3030B8B4228D3030C8B420DD3FF2296
S1130C90090212BA030C8B4202D31212090265D064
S1130CA0030B8B4219D300E0090AC30B8B4201D317
S1130CB0CB03C01A5241830B8B4201D38B03C01A5E
S1130CC05241430B8B4201D34B03C01A5241030BD5
S1130CD08B4201D30B03C01A5241C30A8B4201D386
S1130CE0CB02C01A5241830A8B4201D38B02C01A31
S1130CF05241430A8B4201D34B02C01A5241030AA8
S1130D008B4201D30B02C01A5241CDD2C3098B428C
S1130D1001D3CB01C01A524183098B4201D38B0109
S1130D20C01A524143098B4201D34B01C01A5241AC
S1130D3003098B4201D30B01C01A5241C3088B42F1
S1130D4001D3CB00C01A524183088B4201D38B00DC
S1130D50C01A524143088B4201D34B00C01A52417E
S1130D60411A00D201465241104670475DE0CA0F55
S1130D7000D04942031000D34042534000229C4615
S1130D8003098B422DD3030A8B4212D3FC2289011F
S1130D9012BA030A8B420CD3890192118B4208D3F5
S1130DA0890192118B4204D389013AD0921100E057
S1130DB08909C3098B4201D3CB01C01A524183096B
S1130DC08B4201D38B01C01A524143098B4201D398
S1130DD04B01C01A524103098B4201D30B01C01AC3
S1130DE05241C3088B4201D3CB00C01A524183083D
S1130DF08B4201D38B00C01A5241D9D243088B4293
S1130E0001D34B00C01A5241411A00D20146634635
S1130E1052415B10104601D34042002B00D5494299
S1130E20704763465B1000D3404201B5002000F0D8
S1130E3005F802BD0029F8D016E770477047C04690
S1130E40FEE7C0460A4A0300116810B5002901D123
S1130E500849116010680849C3188B4206D9FFF786
S1130E607DFB0C2303600120404210BD1360FCE7AE
S1130E705C000020780200207802002083780220A1
S1130E809842804140427047437A0020013B012B45
S1130E9003D90B78013001330B70704710B5002073
S1130EA002F010FF002803D00021080002F0FEFE2B
S1130EB010BD0000024A1368013313607047C04636
S1130EC07000002010B5002001F00AFE8023054ABE
S1130ED09B001360044A00200449136002F06CF97B
S1130EE010BDC0460CA0145410A01454740000206B
S1130EF010B5002002F09CF980238220074A5B0091
S1130F001360074A4000136002F07AF80420FF30AF
S1130F1002F076F8002001F0E8FD10BD0CA0145496
S1130F2010A014540023364A70B51360354A0120CA
S1130F301360354A0133FF331360344A3449136074
S1130F40344A1360344A1360344A1360344A1360D9
S1130F50344A1360344A14782500054004424DD0C5
S1130F600B60324932480B60002101603148016056
S1130F7031490B6031490B6031490B6031490B60D9
S1130F8031490B6031490B601378DB0703D502202C
S1130F90FF3002F027F8092002F032F80C2002F0AA
S1130FA02FF8052002F02CF8082002F029F806207A
S1130FB0FF3002F025F80E20FF3002F021F88320E4
S1130FC0400002F01DF80820FF3002F019F80C2050
S1130FD0FF3002F007F88220400002F011F80420EC
S1130FE0FF3002F00DF8072002F00AF8062002F0A4
S1130FF007F88020400002F003F870BD0D60B0E7F0
S11310000C901454109014541490145418901454B4
S113101004A014541C901454209014542490145478
S11310203090145400A0145480FEFF1F08A01454E0
S11310300CA0145410A0145414A0145418A0145444
S11310401CA0145428A014542CA0145434A01454D8
S113105010B5092001F0D4FF10BD10B50C2001F02B
S1131060CFFF10BD384B10B598423DD027D8374B31
S1131070984253D015D8C83B984244D009D8C83BAD
S1131080984231D0324B984206D1052001F0AAFF94
S11310902DE0304B98423DD02F49002001F01FF93C
S11310A02CE096231B01984243D02C4B984247D006
S11310B02B4B9842F0D1052001F094FF31E0294BED
S11310C098422BD007D8C83B98421CD0264B984254
S11310D020D0264BD7E7C8231B01984229D0244BA4
S11310E098422DD0234BE4E7052001F089FF082026
S11310F001F086FF0620FF3001F082FF1E4B1868C6
S113110001F035FB10BD052001F07AFF082001F045
S113111069FFEFE7052001F065FFF7E7052001F01F
S11311206FFF082001F06CFF0620FF3001F05AFF2A
S1131130E4E7052001F064FF082001F053FFF3E722
S1131140052001F04FFFF7E7280A00009808000087
S11311506C070000340800007C410000C409000052
S1131160FC080000B80B0000540B00008C0A0000BF
S1131170E40C00001C0C000088FEFF1F10B5FFF7F4
S113118071FF092001F02EFF0C2001F039FF8320AC
S1131190400001F035FF10BD10B5FFF763FF0920D3
S11311A001F02EFF0C2001F01DFF8320400001F010
S11311B019FF10BDAF220C4B10B5C3189BB292009F
S11311C0934202D8FFF7DAFF10BD084BC3189BB255
S11311D0934202D8FFF7E0FFF6E70200044900203B
S11311E001F07DF8F0E7C046F8F8FFFFD8F5FFFFFF
S11311F0A941000010B5FFF72BFFFFF72EFF832056
S1131200400001F0EFFE024B186801F0B0FA10BD87
S113121088FEFF1FF0B5050085B00F001400012102
S113122000209AB200F063FC0390002D1CD01C49EE
S1131230002000F041FE1B4D286801F098FA1A497D
S1131240002000F039FE286801F091FA17490020C7
S113125000F032FE286801F08AFA0020144900F0F8
S11312602BFE286801F083FA0026124D12492B68E0
S11312706A6800200092320001F031F8380000F072
S11312807DFC03992A6800206B6800910B4901F0EA
S113129026F8002C02DD200001F069FA0136E4E7AB
S11312A0E14100007CFEFF1F094200002B420000C8
S11312B0E148000000D00340504200005C420000BE
S11312C070B500F014FE060000F011FE050000F0F9
S11312D00EFE040000F00BFEFF22FA2364211640E8
S11312E01540303E14409B00303D4D4373435A3902
S11312F0303C4C435B1910401B193038181870BD32
S113130010B50020014900F0D7FD10BD694200006E
S1131310F0B5A9B017AC072200212000FFF7D8F9D7
S1131320FA4A01271C92032207AB1F9309AB2093AF
S11313300BAB22930FAB249311AB259313AB2693E2
S113134015AB0DAE05A9002027931CAB1A711E9195
S1131350069323962770219401F0BAFB380001F01C
S1131360B7FB8021EA4B0902196001F01FFA002340
S113137000971A001900180000F0C0FDE54900208C
S113138000F09AFDC82001F0F2F9E349002000F0D2
S113139093FDC82001F0EBF9E049002000F08CFD3A
S11313A0C82001F0E4F9DE4A3B000221DD4801F0E7
S11313B021FA3900380001F029FA002002F0C0FBBC
S11313C064210025D84B2800199302AB5B181D80BB
S11313D0023102AB5B1819A91D701A9702F0DCFBED
S11313E03A00290005A8FFF773F92A20179B02A9E0
S11313F00B93A2880A85A27909180A700322063879
S113140002A909180A700D93A28802A9B280A279D0
S11314100238B2710522327002260793A2880A8329
S1131420A2790E758A760993A2880A84A27909188A
S11314300A70042202A90A770F93A28818300A8737
S1131440A27909180A700822063802A909180A7034
S11314501193A2880C3002A909180A80A279801974
S113146002A909180A700921063802AA1218117073
S11314701393A3880C3002AA12181380A37980193D
S113148002AA121813700A23063802AA121813703B
S11314904C2202AB9B181D7006AA3B001FA801F04A
S11314A06DFB2900300000F081FAA049A04801F04A
S11314B07FFDFFF737FD0820FF3001F093FDC820C2
S11314C001F055F90820FF3001F09AFDC82001F021
S11314D04EF90820FF3001F085FDC82001F047F9DE
S11314E00820FF3001F08CFDC82001F040F90820ED
S11314F0FF3001F077FDC82001F039F90820FF30F2
S113150001F07EFD1D208B4900F0ECFAFFF772FE1E
S113151080231B0203938849002000F0CDFC874CF4
S1131520874F206801F023F98649002000F0C4FCAD
S1131530206801F01CF900232A001800824900F0F9
S1131540CEFE206801F013F9804B81491A68814B63
S113155003981B6809680190009100207E4900F0FF
S1131560BEFE206801F003F97C4B7D4A7D4ED258C3
S11315707B693968002000917B4900F0B0FE206847
S113158001F0F5F832787378B179D2B2DBB2009118
S11315900020764900F0A3FE206801F0E8F87449C1
S11315A0327A337E0978D2B2DBB2009100207149DD
S11315B000F095FE206801F0DAF86F4B6F491A7855
S11315C05B780969D2B2DBB2009100206C4900F06B
S11315D086FE206801F0CBF86A4B61499A786A4B21
S11315E0D2B2CB58796800200091684900F077FEA8
S11315F0206801F0BCF8664B66491A6805AB1B7895
S1131600002000F06CFE206801F0B1F8624900206F
S113161000F052FC206801F0AAF86049002000F0B4
S11316204BFC206801F0A3F85D49002000F044FC65
S1131630206801F09CF85B49002000F03DFC206824
S113164001F095F85849002000F036FC206801F0BC
S11316508EF85649002000F02FFC206801F087F82E
S11316605349002000F028FC206801F080F851491B
S1131670002000F021FC206801F079F84E49002098
S113168000F01AFC206801F072F84C49002000F0C8
S113169013FC206801F06BF8002203231000484972
S11316A000F01DFE206801F062F84649002000F0B9
S11316B003FC206801F05BF84349002000F0FCFBC8
S11316C0206801F054F84149002000F0F5FB20683F
S11316D001F04DF83E49002000F0EEFB206801F0D7
S11316E046F83C49002000F0E7FB206801F03FF891
S11316F03949002000F0E0FB206801F038F8374950
S1131700002000F0D9FB20686AE0C046890E000082
S11317106802002095420000B0420000B64200007A
S113172064FEFF1F90FFFF1FE0070100A0FEFF1FE4
S113173090FEFF1F60000020BD4200007CFEFF1FE2
S113174000D00340E14200001343000074FEFF1F79
S11317508CFEFF1F84FEFF1F474300003C10000067
S113176000700440004006407F430000B543000081
S113177000500640E443000000E0074000ED00E0B4
S11317801444000000D00740341000004E44000010
S11317907000002086440000B4440000BE440000F1
S11317A0DB440000F744000013450000304500000E
S11317B0574500007645000095450000C0450000EF
S11317C0E3450000124600002E4600005246000089
S11317D07646000090460000AB460000C946000073
S11317E000F0C5FF4F49002000F066FB206800F0C0
S11317F0BEFF4D49002000F05FFB206800F0B7FFFA
S11318004A49002000F058FB206800F0B0FF484926
S1131810002000F051FB206800F0A9FF454900209A
S113182000F04AFB206800F0A2FF4349002000F0CA
S113183043FB206800F09BFF00F059FBC2B20A2A68
S113184068D010006738132869D8FFF76FF90A6861
S11318506868681768282C68682F3468686868683E
S1131860683B3649002000F027FBFFF729FD85B2CD
S11318702A003349002000F032FD4CE631490020B3
S113188000F01AFB0020FFF71DFB0121039A002042
S113189000F02DF900F0B6FEFFF72AFB3BE6280026
S11318A0FFF788FC37E6FFF7A5FC34E600210820A3
S11318B000F07CF82FE62449002000F0FDFAFFF741
S11318C01FFD28E62149002000F0F6FA0020FFF76A
S11318D0F9FA1F49002000F0EFFA00F008FB1D4957
S11318E00500002000F0E8FAFFF7EAFC86B23200B7
S11318F01949002000F0F3FC206800F038FFE9B239
S113190068394D426941802332000120C9B21B026B
S1131910FFF780FC1149002000F0CEFAFBE51049E6
S1131920A8E7C046E646000005470000244700003B
S11319303E47000069470000894700009C470000BB
S1131940C8470000EA470000F447000022480000AE
S11319503B48000064480000AC480000E448000034
S1131960164900001FB5040001A9002002F03CF94B
S1131970694601A802F076F8009B68461C1901A983
S1131980009401F0F7FF012201A9002002F058F9A8
S11319901FBD00000022034B1A608022024B120676
S11319A0DA67704700A01C5804E100E070B50D0030
S11319B00A2408281CD8FFF7B9F8051D2A3F5467E4
S11319C06C6F5C0001F070FA0524012810D0FFF759
S11319D0E1FF2800FFF7C6FF0021080001F0F0F83E
S11319E001210400002000F011FF002C22D100246A
S11319F0200070BD01F058FA06240128F8D0FFF742
S1131A00C9FF2800FFF7AEFF00210120E6E701F03F
S1131A104BFA08240128EBD000F076FF002803D00D
S1131A200121002000F0F2FE0021022001F0C8F89C
S1131A300028DCD00924DBE701F036FA072400286B
S1131A40D6D0FFF7A7FF2800FFF78CFF0021032063
S1131A5001F0B6F8040001F027FA01210028C4D1EE
S1131A60C1E7FFF797FF2800FFF77CFF0021042060
S1131A70EEE70021082001F0A3F8041EDAD10121C9
S1131A80080000F0C3FEB3E70021052001F098F838
S1131A90D0E700210620F9E700210720F6E700003F
S1131AA00B0000B50C4A89B0127806A90A800B4ACB
S1131AB012684A6005AA107004A80370084B1B68DA
S1131AC00090029301230020019301F0D9FC002827
S1131AD000D0022009B000BD6000002074FEFF1F8A
S1131AE078FEFF1FC223FF3308704B60704770B548
S1131AF00D0001000920FFF7D3FF290004002A206C
S1131B00FFF7CEFF2043C0B270BD000000B589B01E
S1131B10030068460A00144909780175182B1BD87C
S1131B20D91F032001291CD91049087806A9088067
S1131B300F4800684860684603750E4B00201B6818
S1131B40019202930C4B05AA0093012301F0A5FC1A
S1131B50002806D0022004E019001D3903201429AE
S1131B60E2D909B000BDC04632490000600000203F
S1131B7074FEFF1F78FEFF1F6800002070B502216D
S1131B8004000120FFF7C2FF304D2A7A6B7AD2B2EB
S1131B90DBB2002820D000202D4900F08DF902216D
S1131BA00320FFF7B3FF2A7A6B7AD2B2DBB20028A4
S1131BB025D00020264900F07FF902210520FFF7F7
S1131BC0A5FF2A7A6B7AD2B2DBB200282AD0002091
S1131BD01F4900F071F970BD002C03D01D4900F0BD
S1131BE07EFBDCE79B0892011A4380239B015A4049
S1131BF0194B20001949D21800F071FBCFE7002CD3
S1131C0003D0144900F06BFBD7E79B0892011A43F9
S1131C1080239B015A40104B20001049D21800F039
S1131C205EFBCAE7002C03D00A4900F058FBD2E758
S1131C309B0892011A4380239B015A40064B2000C3
S1131C400649D21800F04BFBC5E7C04660000020EF
S1131C50344900003B49000000E0FFFF5742000008
S1131C600369C268934201D880681B18013B981A23
S1131C707047F7B58368C46801931F1B4368050068
S1131C800E001819A418974207D83A00FEF7CCFCA6
S1131C90019B6868E41A2200F119FEF7C5FCEC60A8
S1131CA0F7BD0023F7B506001700C568019100933E
S1131CB03369B4689D421FD2013B5B1B641BBC4269
S1131CC000D93C009C4200D91C00736822005819BA
S1131CD00199FEF7A9FC009B2D191B190093019B88
S1131CE03F1B1B190193B368AB4200D10025F5607B
S1131CF0002FDDD10098FEBD1B19DDE7022310B5CE
S1131D000F4C104A236163610F4BA261E361C82346
S1131D10A2640E4A2362E26400230422A362636283
S1131D20E362A3656365E36522650949E01DFEF787
S1131D30F1FD20000749FEF7EDFD2023A37110BD3E
S1131D40980000204B4900001401002010010020DD
S1131D505449000058490000F0B5274B85B01B7862
S1131D600E0002900192002B01D1FFF7C7FF182348
S1131D70029A00255343204AD3185A6D9C6D03924E
S1131D80944219D91B6D019D1B1B9D4200D91D0056
S1131D901827029B30005F43174B2A00DF19FB6CA6
S1131DA076191919FEF740FC019B64195B1B01931A
S1131DB03B6DA34200D10024039B019F1B1B9F4248
S1131DC000D91F00002F0CD01823029A300053436F
S1131DD0094AED19D318D96C3A000919FEF724FC05
S1131DE0E419002D05D01823029A03485343C01860
S1131DF08465280005B0F0BD9800002010B50B00E4
S1131E00EFF31084012181F310881900FFF7A4FF78
S1131E1084F3108810BD0000F8B516001822451C84
S1131E2055434243164B0F005D199B18DC6A012C85
S1131E3010D0022C1BD0002C1FD12800FFF710FF5C
S1131E40864205D8320039002800FFF712FF34001B
S1131E502000F8BD2800FFF703FF3400864200D9B4
S1131E600400220039002800FFF703FFF0E73200E6
S1131E702800FFF716FF0400EAE70024E8E7C0465D
S1131E8098000020F8B50B4B04001B780E001700D7
S1131E90002B01D1FFF732FFEFF31085012181F30D
S1131EA010883A0031002000FFF7B6FF85F3108850
S1131EB0F8BDC0469800002070B5050008000C006D
S1131EC0FEF730FD210002002800FFF7DBFF70BDA4
S1131ED013B56B46DC1D012221000020FFF78EFFA5
S1131EE0012801D1207816BD01204042FBE710B53E
S1131EF0FFF7EEFF0028FBDB10BD0000F7B5164C22
S1131F000193237805000F001600002B01D1FFF781
S1131F10F5FE2369AB421CD9EFF31082012181F352
S1131F201088002D0CD01823691C59436B4367504B
S1131F3061184E600199E31819620021996259628F
S1131F4018204543089B6419E36282F3108800203B
S1131F50FEBD01204042FBE798000020826810B5D6
S1131F6004004068531C834205D820688154A36050
S1131F70E3680133E360A26863689A4209D1216887
S1131F802069FFF77FFFA368984203D001235B42D7
S1131F90E36010BD0023A360FBE70000F0B505007B
S1131FA017000800012685B00A9C02910093B842EC
S1131FB019D2009A0196964200D2019201230B9AFB
S1131FC01A4003920B9A1A4202D1002C10D1002419
S1131FD0EB680126002B4BDB009B012B1FD9013B37
S1131FE000937E43F8E73900FEF7B4FD0136DEE7DF
S1131FF00B9B20269B0704D5009B1036002B00D09A
S1132000103E019BA342E3D231002800FFF7A6FF54
S1132010EB68013C002BDBDB002CF2D1D7E731006D
S11320200298FEF797FD8742DBD902983100FEF74C
S113203017FE114B0291195C2800FFF78FFFEB6824
S1132040002B05DB39003000FEF784FDBE4211D2BF
S1132050039B002B0CD0002C0AD0019BA34207D277
S113206020212800FFF77AFFEB68013C002BF2DA0D
S113207005B0F0BD0600D8E75F490000F0B59FB099
S11320800EAB099340230A9300230E00150007901A
S11320900B930D900C9331780136002907D10C9BDA
S11320A00393002B00DD09E10C981FB0F0BD252936
S11320B000D0B3E000270822042006E0302B0DD125
S11320C0022300E001231F430E003378711C2D2BE3
S11320D0F8D0F3D8232B10D02B2B0CD000240A21BA
S11320E03378721C18003038092808D84C43303C27
S11320F016001C19F4E70743E6E71743E4E7002159
S113210003912E2B0ED116000A203278711C130075
S1132110303B092B06D8039B0E004343303BD318B6
S11321200393F2E7042331780A0001369A43682ABC
S113213001D13178F8E7782909D86F290BD86329B8
S113214067D017D8252969D0582900D195E00C9B70
S1132150002BA0DAA3E7703908000829F7D8FEF7A6
S1132160EFFCA500F6FFF6FF9400F6FF8300F6FFF0
S1132170F6FF8C006429EAD12B681A1D1B682A60BB
S1132180DA1798180493012350400593092849DC71
S1132190039B059A0693934200D20692002C05D025
S11321A0049B002B01DB7B0700D5013C02231F426B
S11321B002D0039B002B05D001231F4202D1002C27
S11321C036D100240C9B0593002BC0DB049B002B11
S11321D03ADA2D215B42049309A8FFF7BFFE0C9B5A
S11321E0002BB4DB03233B40022B05D1039B002BC4
S11321F002D1002C2CD100240C9B0593002BA6DBD0
S11322000A22039B04990197009409A8FFF7C6FECC
S11322109DE72B6819681A1D2A60C9B209A8FFF73F
S11322209DFE94E70A21FEF71FFD059B0133ACE7F1
S1132230069BA342C6D2202109A8FFF78FFE0C9B60
S1132240013C002BBBDABDE77B07C8D52B21C3E7D4
S1132250069BA342D0D2302109A8FFF77FFE0C9B36
S1132260013C002BC5DAC7E70A22296801970B1D38
S11322702B60039B00940968C7E7296801970B1D2D
S11322802B60039B00941022F5E72B681A1D2A602B
S11322901C6821780134002900D158E709A8FFF708
S11322A05DFE0C9B0393002BF3DA50E729680B1DAA
S11322B02B600023019308330093E4E70B9A002A70
S11322C003D007980EA9FFF7DDFD0C9B03930B9B2E
S11322D00493049A039B944663440C93E4E60EB47B
S11322E003B503AB02CB01AA0193FFF7C7FE02B00B
S11322F008BC03B0184710B5002000F08FFE10BDD5
S113230010B5002001F0FAFC10BD0000082310B540
S1132310164A9178194202D091780B439370882120
S113232000222220124B49015A501249124C0870C3
S11323308020124940025850196811480140196020
S1132340195910480840C0218904014319518021BA
S11323500D4B1A7219767F391A7059700B490A702D
S11323600C3299791142FCD110BDC04600D007400F
S11323700070044000E00740041000004410000016
S1132380FFFFF3FFFFFFFFF0004006400050064050
S11323901249134810B5814205D00022114B9B0805
S11323A09B009A420FD1104B104A996000231049A8
S11323B01048521A9A420AD100210F4B0F4AD21ADE
S11323C0013A08D210BD84588C500432E9E7CC5C41
S11323D0C4540133EEE719700133F1E70000000043
S11323E0000000000000000000ED00E0D84C0000F8
S11323F0304B000000FEFF1FA8FFFF1F78020020E3
S113240000230200180010B5994203DCFEF72CFCEF
S113241000B210BD5C00145B0133201800B2F3E776
S1132420F8B5002506000F0028001100A94203DCBE
S1132430FEF71AFC00B2F8BD6B00F45E0135E41B34
S1132440A3B25B43181800B2F0E773B50E000500A1
S1132450FFF7D6FF3200040001002800FFF7E0FF79
S11324600304A0B2184376BDF8B50221060001208A
S1132470FFF74CFB0025214FC0B23B7A7A7ADBB2DE
S1132480D2B2A84208D180259B0192081343AD0122
S11324905D401B4BED18ADB202210320FFF736FB64
S11324A000243B7A7A7AC0B22DB2DBB2D2B2A04217
S11324B008D180249B0192081343A4015C40104B73
S11324C0E418A4B202210520FFF720FB00233A7A86
S11324D0797AC0B224B2D2B2C9B2984208D1930177
S11324E08A081A4380239B015340054A9B189BB2D8
S11324F0300035807480B380F8BDC0466000002091
S113250000E0FFFFF0B58BB06A4600AF4B003B60C4
S11325100733DB08DB00D21A9546D21AD31A6E466B
S11325200C00954600259D467860FA60BB603B68C8
S1132530AB4219D121003000FFF787FF2100F86179
S1132540F868FFF782FF21003862B868FFF77DFF63
S113255010210C227918786289187868FEF764F8DB
S1132560BD4678680BB0F0BD1423F818FFF77CFF64
S1132570BB8AFA687353FB8A53533B8BBA68535331
S11325800235D4E770B506000D0000200949FFF7B5
S113259093FC0024A54204DC07490020FFF78CFCCF
S11325A070BD63000020F25E0449FFF798FE013419
S11325B0F0E7C0466F490000E24800007849000097
S11325C01FB5031401AC029103920B4902B200201F
S11325D0FFF785FE0622A35E00200421625E074900
S11325E0FFF77DFE0A22A35E00200821625E0449F3
S11325F0FFF775FE1FBDC0467D49000097490000E6
S1132600B0490000F0B50020FA271449A3B0FFF741
S113261053FC0024BF000A2101A8FFF773FF0198AF
S11326200299039AFFF7CCFF6B469B8804AEA35331
S11326306B46DB8813AD63533800023400F097F81F
S11326403C2CE8D130001E21FFF79CFF28001E21FE
S1132650FFF798FF002023B0F0BDC046C949000031
S1132660030041700020187058609860704710B5DE
S1132670437804000120FF2B08D000F047FA637868
S11326800133DBB2637000F035FA002010BD002086
S1132690704770B504000D0000F038FAE168294372
S11326A0E16000F027FA002070BD000000220A4B10
S11326B09A641A0040329A631A0030329A621A00FD
S11326C020329A611A0010329A60044A1360044B53
S11326D09B60DB607047C046E0010020DC01002005
S11326E0300200200022024B1A60186880B2704742
S11326F00C007C5070B5437804000D00002B0BD007
S1132700002500F003FA6378013BDBB263702570A7
S113271000F0F0F9280070BD02200029FBD02378D6
S1132720002B17D0FFF7DEFF6368A268834204D84A
S1132730C01A824206D30320EDE7C01A80235B024D
S1132740C018F6E700F0E2F90023237000F0D2F994
S11327500220E0E74B1CEED000F0D8F901232370EF
S113276000F0C8F9FFF7BEFFA5606060E3E770B54D
S11327700500FFF7B7FF802604007602FFF7B2FFDB
S11327800300844203D8031B9D42F7D270BD301B63
S1132790C318F9E710B5012801D100F0B7F910BD4D
S11327A010B5012801D100F0A5F910BD10B5FFF74F
S11327B07DFF01230020084A08491360084A094C98
S11327C01060086004212160074C216007490B60F8
S11327D007490860136010BD38800450000084501D
S11327E000000450000004510400045104000C5083
S11327F00000045310B5044C206021710020A26035
S11328002373637310BDC046400200200422F0B558
S113281087B005AC3B4E0190029120706170337912
S11328200092834226D90022337B1500737301235F
S11328300092A3700393334F3B7BAB421DD8009BA4
S1132840002B02D0029B012B48D10120FFF7A2FFED
S11328500C20019B002558433368181800F0C2F877
S1132860019B012073710226FFF79AFFA6703B7B40
S1132870AB421AD8009807B0F0BDBA68AB009B58B9
S1132880002B0FD01A7903990A420BD020001A6842
S113289099689047002805D0029B7D73002B1BD0BC
S11328A0052300930135EDB2C5E7BA68AB009B5828
S11328B0002B0ED01A7932420BD020001A68996886
S11328C09047002805D0029B7D73002B17D0062368
S11328D000930135EDB2CAE7052300930023A370EA
S11328E0013DEDB2FF2DC5D0064BAA009B68D3581D
S11328F0002BF5D020001A6899689047F0E706236A
S11329000093B7E740020020014B58797047C04656
S11329104002002013B50400002021780190022910
S113292020D0032922D0012925D1227901AB1448D2
S113293000F0B4FF002814D1A3795A1E9341114A20
S1132940DB01137063785A1E93410F4A5B001370C6
S1132950A2780E4B1A70E2780D4B1A7062790D4B07
S11329601A7016BD0100227901ABE0E701A9044801
S113297000F0D6FFDEE701A9014800F073FFD9E7B4
S113298000400640184086530040865000400650E0
S11329900140065018401650074A43099B009B18F3
S11329A0F822C00512051040184380235B05184324
S11329B0002303607047C04628800440F821084A79
S11329C043099B009B180905C2050A401343802252
S11329D0520513431F2210401E3A82401A6070476A
S11329E028800440072373B5009300230400104D8E
S11329F01A000121280001F073F92000FFF78AFF73
S1132A00637A280000930023217A1A0001F068F900
S1132A10E379084A9B041360074BA17A1D682800D8
S1132A2000F09AFF2800E17A00F09DFF002076BDB7
S1132A300070044000700C59284A000010B5054885
S1132A4000F0D0FE044B1968C9B20131FEF782F8D8
S1132A5010BDC0460040064044801C5E10B5FFF720
S1132A60EDFF10BD10B5054800F0BCFE044B19681D
S1132A70C9B20131FEF76EF810BDC04600400640F1
S1132A804480145810B5FFF7EDFF10BD0B4B1B68C5
S1132A90DBB2022B0CD0032B0DD00020834206D1D5
S1132AA0074A106880221202904200D01800704732
S1132AB0044B1868FBE7FA208000F8E700700C5913
S1132AC0680200206C02002010B5FFF7DFFF10BD84
S1132AD010B5024B185CFFF771FF10BDDE49000012
S1132AE010B56620FFF76AFF10BD10B56620FFF72A
S1132AF053FF10BD044A1368002B04D0013B13603C
S1132B00002B00D162B670475002002072B6024A10
S1132B1013680133136070475002002010B5064C4F
S1132B20064801F081FA042801D1002010BD013CBF
S1132B30002CF5D10320F9E7EA03000000E0074088
S1132B4010B50B4B0B490A78002A07D0084C0A48E9
S1132B5001F06AFA012806D1002003E0013B002BB2
S1132B60F1D1032010BD013C002CF0D1F9E7C0469F
S1132B70EA03000002D0075100E00740F7B5070060
S1132B800E00150001200193002F15D0002913D049
S1132B90FFF700FE094C102200212000FDF798FDEC
S1132BA027602671002D03D0019BA56023736373F6
S1132BB00120FFF7F5FD0020FEBDC04654020020B1
S1132BC0F0B5B14C8DB002900391237B0120637367
S1132BD0FFF7E0FD2379029A934206D80120FFF71C
S1132BE0DFFD022738000DB0F0BD029A2368920081
S1132BF0D35809AC1D780193039B2A002372029BCE
S1132C002370019B636002239A430492012A01D03A
S1132C10052D0AD101219D4801F05AF9002807D158
S1132C200120FFF7BDFD0127DCE70321072DF2D8C2
S1132C300123002763723C000593934E337BA34228
S1132C402AD80120FFF7ACFD914800F0EFFD049B6A
S1132C50012B4AD10138022835D9039B012B00D01E
S1132C600DE106270120FFF795FD0023012609AD9C
S1132C706B72013CE4B2FF2C00D1AFE0824BA200A6
S1132C809B68D358002BF4D01A793242F1D0280033
S1132C901A6899689047ECE7B268A3009B58002B28
S1132CA00ED01A7905990A420AD01A68996809A8B7
S1132CB09047002804D0039B04277473012BC0D1D0
S1132CC00134E4B2B9E7FFF7DDFE724B9842C4D891
S1132CD0FFF7B4FE704EB042BFD8FFF7C3FEB04258
S1132CE0BBD8FFF7BBFEB042B7D8039B012B00D083
S1132CF0C1E00A2D00D9BCE02800FDF717FF060A41
S1132D000D1E879A7B822F737800002207AB1A70FE
S1132D102DE0032207ABFAE75C4801F085F90128AE
S1132D2008D00021594801F0E3F8FFF709FF071E16
S1132D3000D057E7012207ABE9E7544801F074F9E2
S1132D40042808D00221514801F0D2F8FFF7E6FE2A
S1132D50071E00D046E7042207ABD8E7072207ABDB
S1132D601A80019AD2789A70019A1279DA702B003B
S1132D70083B022B06D8019B06AA5B799372019B40
S1132D809B79D372019B5B78002B0AD0012D08D963
S1132D90019B02229978414B00294DD019690A43BD
S1132DA01A613A4807A901F0C7F8002800D00327A0
S1132DB0002D45D1FFF7C4FE071E00D012E70027FF
S1132DC00120FFF7E7FC029B2F4D0024AB73022385
S1132DD009AE737201932B7BA34236D80120FFF70F
S1132DE0DFFCFFE6082207ABFF321A80BFE72C4A5C
S1132DF007ABFAE7022207AB1A700222FF329A806D
S1132E00B5E7022207AB1A70264AF8E7022207AB9D
S1132E101A70013A1D489A8001F006F90128A6D0DB
S1132E2000211A4801F064F8FFF78AFE071E9ED0BD
S1132E30D8E6052207AB6AE7196991431961B0E73F
S1132E40012DBDD1FFF76AFEB6E7AA68A3009B581F
S1132E50002B0BD01A7901990A4207D030001A6866
S1132E6099689047002801D005276C730134E4B2B7
S1132E70B1E70327B6E6002F00D13AE7F2E6002FC8
S1132E8000D0EFE6EDE6C0465402002000E0074023
S1132E900040064040420F0080841E0000ED00E028
S1132EA0070300000102000010B5064801F0BCF859
S1132EB003000020012B03D00B30042B00D10A386F
S1132EC010BDC04600E00740F7B5FF2403681D4A63
S1132ED01E0A26401C40B3009F581B4A05009B58FD
S1132EE030000193FFF7F4FD00222100380001F0C7
S1132EF0A3F8019BA400E41884232A795B052343E7
S1132F0052001A6080236A795B0523431A60902378
S1132F10AA795B05234312011A600C4B1C43EB791D
S1132F201B042360EB79002B0AD0094B9B57002B21
S1132F3006D01F2213401E3A9A401300054A13601C
S1132F40F7BDC0462C4A0000344A0000000018189F
S1132F503C4A000000E100E0F8B5FF2405000368E6
S1132F60114A180A20401C4083009F580F4A9E585B
S1132F70FFF7AEFD38002100012201F05DF86A6818
S1132F802100380001F067F888232A7AA400A419E4
S1132F905B05234392001A6098235B051C436B7AFC
S1132FA09B012360F8BDC0462C4A0000344A00004F
S1132FB070B50C00002807D1002C0FD170BD05009E
S1132FC00835FFF781FF280003680133F7D1F3E7E1
S1132FD0250020000C35FFF7BFFF2C0023680133C8
S1132FE0F6D1EBE7FF22030A044913409B0059582A
S1132FF00123104083404B607047C0462C4A0000B8
S1133000FF22030A044913409B005958012310402E
S113301083408B607047C0462C4A0000084B8200F6
S1133020D258942310B502325B0513431B78002B4E
S113303002D000F03FFA10BD00F092FAFBE7C04660
S1133040E0490000020080230C325B0513431A7828
S1133050002AFCD00171704770B50D00084B800048
S1133060C458200029001830FFF744FB0328F8D087
S1133070002801D004232374207CC0B270BDC04654
S11330806402002010B5104B8000C458E37C002B70
S113309005D0237C052B02D0237C042B0BD10B4BB6
S11330A018589823821C5B05134300221A7001F000
S11330B041F801236374A37C002B03D02000183053
S11330C0FFF7D5FA10BDC04664020020E0490000B5
S11330D0F0B51700002289B005930EAB1B780500EC
S11330E00393830032481E5832481C5807AB1A8099
S11330F0A37C880A04930223FF3363828B0A01931F
S1133100CBB21E2801D11A000B0A5B00D8B2019B76
S113311000211E2B05D08F4203D1012303995B1A92
S113312059B20143CBB202930299019807AB1970CB
S113313001211E2801D15A704918A3603000E160B2
S11331400299FFF77FFF28000F99FFF785FF237C83
S1133150002B0CD1002F0AD0059BA760E360300040
S11331603978FFF76FFF28000F99FFF775FF237C6D
S1133170039A1A4314D1019B1E2B01D0002F0FD0A8
S1133180002301273000A360E76000F0C1FF02992B
S113319030003943FFF756FF28000F99FFF75CFF13
S11331A00023207CE374049BC0B2A37409B0F0BD77
S11331B0E049000064020020F7B583000193184B36
S11331C08200D75805000C000126002F26D1154B8C
S11331D03900D358200024220193FDF779FA200006
S11331E039001830FFF73CFA2800FFF779FC019802
S11331F000F039FF0A4BAA00D4501F220A4B5B5D32
S1133200134032009A40094B1A609C22019B5205DC
S113321002331343802266743E001A703000FEBDF0
S113322064020020E0490000E449000000E100E0FD
S1133230F7B50E4E8500AB59002701930C4B0400E3
S1133240EA589C2302325B0513431F70FFF74DFCC1
S1133250084B01981A5D1F231A401E3B9340064AEF
S11332601830D367FFF713FAAF51F7BD640200209B
S1133270E0490000E449000004E100E00A4B80005A
S113328070B5C5584B686A690C0093420BD0074B64
S1133290C658FFF7E7FB002301006268300000F026
S11332A0F1FE63686B6170BD64020020E0490000B8
S11332B0F0B587B004920593334A0FAB1E788300B0
S11332C09C580391627C0700002A03D103202074D8
S11332D007B0F0BD002E01D11E220E922B4A3800F9
S11332E0D55800230399E360A360237423606374B7
S11332F0A674FFF7C3FF90231021AA1C5B05134398
S113330019708423E91C5B050B430221197098236F
S11333105B05134302934023029A2800137000F0C4
S1133320F7FE039B380019880E9B049A019301232E
S11333300093059BFFF7CCFE0D9B002B17D0237C3D
S1133340002B11D10C9B2800A3600D9BE3600C9B08
S11333501978FFF777FE002E03D038000E99FFF797
S11333607BFE207CC0B2B3E7237C042BF9D100237D
S11333700126029A1370EB785B09334202D02800CD
S113338000F0D8FE6674ECE764020020E049000017
S1133390F0B589B0079311AB1B780692364A0293B5
S11333A083009C580591627C0600002A03D1032007
S11333B0207409B0F0BD029A002A01D11E32109285
S11333C000272E4A0599D5580E9B300023600F9B89
S11333D0A7606360029BE760A37427746774FFF7B8
S11333E04DFF9023AA1C5B051A43102313708423FA
S11333F004925B05EA1C134302221A709823AA184C
S11334005B051A43402328001370039200F080FEEA
S1133410059B069A1988109B300001930097079B1F
S1133420FFF756FE237CDAB2BB4215D1049BA91CDC
S11334301A708C235B050B430F99012900D10822D4
S11334401A702B79029B002B03D030001099FFF7E0
S113345003FE207CC0B2ACE7237C042BF9D1012607
S1133460039B1F70EB785B09334202D0280000F005
S113347061FE6674EDE7C04664020020E049000086
S11334801FB501240394089C0294079C0194069C94
S11334900094FFF70DFF04B010BD1FB50124039481
S11334A0089C0294079C0194069C0094FFF770FF0B
S11334B004B010BD244B70B58400E5588423EA1C85
S11334C05B05134302221A709023A9185B050B4372
S11334D01B78EA78DBB292061DD5942252050A4382
S11334E01278002A17D0194AA458012B14D1EA786B
S11334F01A4204D004332374FFF7C4FD0BE0E368DD
S1133500013BE360002BF7D0A36828005A1CA2609B
S11335105978FFF797FD70BD6268013A6260002A2E
S113352006D08C235B05012A0AD000220B4309E054
S1133530FFF7A8FD23685A1C22602A791A70EAE76B
S113354008220B431A70F5E7E049000064020020EA
S1133550C31C8420400518430223037070470000F5
S11335600122F0B5904B8100CD5889B0EB1C01933A
S1133570EB7890261B091A4005920122EB78760518
S11335809B091A4002923200AB1D1A4394461278EA
S11335900090D2B20792942252051A431278AF1CBB
S11335A0D0B203909820400503431878C0B2069027
S11335B07E480C583100394301910978C9B204910D
S11335C0002A35D0079A002A0ED01023624628001C
S11335D01370FFF7BDFF236B002B52D06A46012105
S11335E01078626B98474CE0069A002A20D040225B
S11335F028001A70FFF7ACFF23002C331B78002B34
S113360003D19822520517433B70236B002B04D03F
S11336106A4680211078626B9847E37D002B04D0C2
S1133620200080211830FFF734F80A23237028E0A3
S11336302800FFF78DFF059B002B24D0EB1C1E43B5
S113364010233370029B002B10D0EB785B07DA0F4A
S1133650002B48DB019B1A70236B002B04D06A46B5
S113366004211078626B98472B790AE008232370B1
S11336702C342378002B04D198235B051F43029B31
S11336803B7009B0F0BD029B002BDED1049B012BE3
S113369054D1EB78049A134230D0019B029A1A70E9
S11336A02B7923002C331B78002B07D1039B002B91
S11336B004D198235B051F43039B3B70236B002BB2
S11336C004D06A4608211078626B9847A37D002BCA
S11336D004D0200008211830FEF7DBFF00236360CC
S11336E0E3602375CDE71023019A1370236B002B3D
S11336F004D06A4602211078626B98476368002BF5
S113370050D028008022E3680C3052051978024317
S113371010780028FCD029710133E3606368013B11
S113372063606368002BACD1E3602375236B002BCB
S1133730A7D06A4610211078626B53E72B79A268F0
S1133740DBB2002A2CD02269137023690133236170
S1133750A368013BA360A368002B00D091E7039BFF
S1133760002B11D123002C331B78002B04D1982378
S11337705B051F43039B3B70E37D002B04D02000BB
S113378020211830FEF785FF002363752361236B26
S1133790002B00D175E76A4620211078626B21E77F
S11337A0072343E7062341E7E049000064020020C1
S11337B084225205024312780300D0B2002A0CD0AE
S11337C080200133400503431878013843425841AF
S11337D0024B40421840024BC0187047808D5B007A
S11337E080841E0010B50D4B821D13431A7804000B
S11337F0D3B2002A0FD0012B07D1FFF7D9FF084B12
S113380008341C432378D84010BD0020022BFBD180
S1133810044B1868F8E70448F6E7C04600000811AE
S11338200000901068020020006CDC020C4A811D2C
S11338300A4312780300D0B2012A04D002280BD024
S113384000280BD1704780220133520513431B78A3
S1133850002BF7D10220F5E70320F3E70520F1E779
S11338600000081102009C2318325B0513438022D8
S11338701A700022064B03431A70064B0630184395
S11338800378DAB2002BFBD1034B10000B607047B6
S11338900000081300000811006CDC02F8B50400F5
S11338A00D0016001F00FFF7C1FF012823D1002DD2
S11338B025D08023621C5B0513431D7084230222E0
S11338C05B0523431A702200104B08321343720025
S11338D0D2B21A7040220E4B0E48234306341A709B
S11338E004432378012BFCD1002D0DD10A4B334125
S11338F000203B60F8BD0228DBD1012DD9D139006D
S11339002000FFF7AFFFD4E7044BF0E7000090106E
S1133910000008130000081180841E0000127A00C1
S113392010B50A4C030022680120002A0CD0084A72
S11339307F301A4310700748063303431A78022A6B
S1133940FCD1002023680B6010BDC0466802002033
S113395000000813000008119C23C9015B05034300
S1133960C9B219707047942349015B050343C9B276
S11339701970704770B506680C0030002049FDF7D7
S1133980E9F81F4905003000FDF76AF90E00E1214E
S113399030000901FDF7DEF8E121E0800901300083
S11339A0FDF75EF90E003C213000FDF7D3F83C2111
S11339B020813000FDF754F96E22A1720321114BCE
S11339C0FF322380238895420AD80F499B0700D1F0
S11339D00E490123CA5CAA420CD36380A58070BD42
S11339E001339BB223800B40AD1A5A425A416E32C6
S11339F0FF32E7E70133AD1A0D2BEBD1EEE7C046FA
S1133A0080510100B20700000C4A0000E5490000A3
S1133A100188114A03008A18002030B5812A17D87A
S1133A205A88541E0B2C13D89C88651E1E2D0FD843
S1133A30DD88172D0CD81D893B2D09D89B7A3B2B8B
S1133A4006D88B0705D0054B9B5CA3424041C0B20E
S1133A5030BD034BF8E7C0464EF8FFFF0C4A0000A8
S1133A60E549000070B5134D838802885B196E2503
S1133A70FF35554344885B1995085B190E4D660064
S1133A80755B5B19920710D00B600A680B4BC488F6
S1133A905343827A00899B18E122120162439B18E6
S1133AA03C2242439B180B6070BD022CECD8013BB6
S1133AB0EAE7C0464A05F5FFF249000080510100DB
S1133AC08023084A1B0212689A4209D1A0231030AD
S1133AD05B0518430368002B02D10133FF330360F5
S1133AE07047C046680200200100802210B5002300
S1133AF001245205103111430C600B609021436086
S1133B00490504601C3001430B60882149050143C9
S1133B100B6084214905014310430B60036010BD11
S1133B200200902314325B05134300221A604260A2
S1133B30103201601A60704703680B607047000020
S1133B40104B820070B5D558802204000E4B9205AC
S1133B501A602800FFF7C8FF2800FFF7B1FF0B4BDE
S1133B601F261A5D0123180009493240095DC0254A
S1133B70314090408B40074A6D00505153511060C2
S1133B80136070BD1C4A00003C80845E204A000023
S1133B90214A000000E100E0F7B50027114B800046
S1133BA0C55808000E000197FFF732FF0400B84221
S1133BB016D001A93000FFF755FF3800FEF784FF47
S1133BC0010080200002814206D0FCF7C3FF0100FF
S1133BD00198FCF7BFFF019028000199FFF7A0FFAF
S1133BE02000FEBD1C4A0000F7B50025124B8000E2
S1133BF0C4580E00200001A90195FFF79DFF28007D
S1133C00FEF762FF05008020000285420ED00B4BB8
S1133C10290004341C43FCF79DFF2768019C2900FC
S1133C204443B8B2FCF796FF24180194310001A86C
S1133C30FFF7A0FEF7BDC0461C4A00000000781044
S1133C40F0B50027184B800085B0C55808000E0059
S1133C5001920397FFF7DCFE0400B84203D100246D
S1133C60200005B0F0BD300003A9FFF7FBFE3800CB
S1133C702E68FEF729FF010080200002814206D051
S1133C80FCF768FF01000398FCF764FF0390039BB3
S1133C90B342E4D3AB6088231C355B051D43019B11
S1133CA09A002A60DCE7C0461C4A0000044B8000EE
S1133CB0C25888231C325B0513438900196070477E
S1133CC01C4A0000054B8000C258882314325B054F
S1133CD013431868431E9841C0B270471C4A000041
S1133CE06B46E0221B78D2021B041340024A0907E8
S1133CF00B4380180360704744100000084B820097
S1133D00D258902310B503325B0513431B78002B64
S1133D1002D000F025F810BD00F08AF8FBE7C04699
S1133D20244A00009C210C4B0C4A8000C358825842
S1133D30002003324905114310B51871087094210D
S1133D4049050A4310701A7F824203D020331800B9
S1133D50FEF78DFC10BDC04670020020244A00000E
S1133D6010B51E4B8200D3581979002934D01C4950
S1133D7051585A69002A11D09C2252050A431278DC
S1133D80002A0BD08A79DC68D2B2002C03D02270CE
S1133D90DA680132DA605A69013A5A611A69002A0A
S1133DA012D0942252050A431278002A0CD09A6841
S1133DB0141E02D0147801329A608C711A69013A87
S1133DC01A619A6901329A611A69002A04D15B69FD
S1133DD0002B01D1FFF7A6FF10BDC04670020020E2
S1133DE0244A0000104A8000815800220F4B10B56D
S1133DF0C3580331581CC2779C2040050843DA623B
S1133E001A701A835A629A621A63027094204005E7
S1133E1001430A701A0038321278002A03D00121B3
S1133E20181DFEF736FC10BD244A00007002002065
S1133E3070B5254B8200D358591CC97F002942D044
S1133E4022495258D96A002917DB942149051143A4
S1133E500978002911D0D969CCB2596A002905D052
S1133E60DD6A002D02DD0C78013159629471D96A42
S1133E700139D962596B01315963D96A002905DACC
S1133E809421D41C4905214300240C70196B00298A
S1133E9011DD9C2149051143097800290BD0927941
S1133EA0996AD2B2002903D00A709A6A01329A62DE
S1133EB01A6B013A1A63DA6A002A04DC1B6B002BC2
S1133EC001DCFFF78FFF70BD70020020244A000060
S1133ED0012903D0032909D00020704794235B05EE
S1133EE018430078431E9841C0B2F6E78423F6E7EE
S1133EF0431C034849011843C9B201707047C046C6
S1133F0000008812831C9420490140051843C9B25B
S1133F1001707047831C034889011843C9B20170BA
S1133F207047C04600000813831C8C20C90040055C
S1133F301843C9B201707047F7B50400364EE31C4C
S1133F401E43337808780D00DBB2072860D8FCF7ED
S1133F50EDFD04192B0E192B2B45304B01341C435A
S1133F60002323703378012BFCD10020FEBD012BEC
S1133F70FCD12A4B01341C43402323703378042B97
S1133F80FCD1F2E70021012801D00420023133786A
S1133F9098423FD12000FFF7ABFF0421204A136968
S1133FA08B43136130BFE0E70227B84207D10027F3
S1133FB00B79BB4203D020004979FFF7ABFF194BC3
S1133FC001341C4327703378154ADBB20193019BFB
S1133FD001330193042311690B43E2E70421114BDC
S1133FE0621C1A4311706A78A11C0B431A70002AD0
S1133FF006D1AB78002B03D02000E978FFF782FFCD
S1134000AB79002BDFD02000E979FFF78DFFDAE7E9
S11340100120ABE70320A9E700003010000088125C
S113402000ED00E000001010C31C024818430078A3
S1134030C0B2704700003010012314308B40012AB5
S113404004D1802212051043036070478022D204F9
S1134050DB431043F8E701238B40002A01D043607F
S113406070478360FCE70023C222037043708370AF
S1134070C37043718371C371037242728372C372DA
S113408070470000F0B5002487B00293FA2301269C
S1134090270025009B00534303900491009301944F
S11340A07642AB000593194BAA009B1859880498D3
S11340B0A140FCF74FFD009B009AC31A824200D92D
S11340C0131AB3421FD2114AA900525C270001926D
S11340D0002B02D00135322D13D10134032C01D031
S11340E0002B0DD1029A002A00D013603F220199BF
S11340F0BB0111400B43039ADBB2537007B0F0BD10
S113410000251E00CDE73300E4E7C0463E4A000028
S1134110942302305B0503431B78002B05D08823CE
S11341205B05184304230370704780231B05184361
S11341303023F8E7942210B55205841C22431178E9
S11341400300CAB2022001290DD18021C9042143F0
S11341508024CD300870E40003331978490908003D
S11341601040114200D110BD013C002C01D0C046CA
S1134170F3E70920F7E7000004FEFF1F1B5B306D27
S11341801B5B343B34336D1B5B313B33376D0D5359
S1134190616E69747920636865636B206661696C1C
S11341A06564211B5B306D0A001B5B306D1B5B3447
S11341B03B34316D1B5B313B33376D0D496E76619A
S11341C06C696420737570706C7920766F6C74619F
S11341D06765205B25645D206D56211B5B306D0A8D
S11341E0004D6561737572656D656E74206E756DD5
S11341F06265722C205254432D3E5453522C20524B
S113420054432D3E5450522C00204D4D41383435EA
S11342103120782C204D4D413834353120792C20F3
S11342204D4D4138343531207A2C00205254432DE1
S11342303E5453522C205254432D3E5450522C2061
S11342402320436F6E666967204572726F72730034
S113425025752C2025642C2025642C002025642C15
S11342602025642C2025640A000D09506F7765729F
S1134270757020636F6D6D616E64206661696C6535
S1134280642E20424D583035352064697361626C68
S11342906564200A000A0A0A0D426F6F74696E672A
S11342A020576172702C20696E20332E2E2E200030
S11342B0322E2E2E2000312E2E2E0A0D000D0A0A2B
S11342C00A0A5B202A090909095709610972097058
S11342D009287265762E2062290909092A205D0AB7
S11342E0000D5B20200909090920202020202043FB
S11342F0616D627269646765202F20506879736309
S11343006F6D706C61622020200909090920205D0D
S11343100A0A000D09537570706C793D25646D5659
S11343202C0944656661756C742054617267657408
S113433020526561642052656769737465723D300B
S113434078253032780A000D094932433D25646BE3
S1134350622F732C095350493D25646B622F732CD3
S113436009554152543D25646B622F732C0949321F
S1134370432050756C6C2D55703D25640A0A000D60
S11343800953494D2D3E53434743363D307825303C
S1134390327809095254432D3E53523D307825302A
S11343A0327809095254432D3E5453523D307825F6
S11343B03032780A000D094D43475F43313D307870
S11343C0253032780909094D43475F43323D30783F
S11343D02530327809094D43475F533D3078253005
S11343E032780A000D094D43475F53433D30782529
S11343F03032780909094D43475F4D433D307825F4
S113440030327809094F53435F43523D30782530A9
S113441032780A000D09534D435F504D50524F54AA
S11344203D307825303278090909534D435F504DAA
S11344304354524C3D307825303278090953434275
S11344402D3E5343523D3078253032780A000D0911
S1134450504D435F52454753433D307825303278C1
S113446009090953494D5F53434743343D30782587
S1134470303278095254432D3E5450523D30782501
S11344803032780A0A000D0925647320696E2052BF
S113449054432048616E646C657220746F2D6461AE
S11344A074652C09256420506D6772204572726F03
S11344B072730A000D53656C6563743A0A000D2D1E
S11344C0202761273A207365742064656661756CE2
S11344D0742073656E736F722E0A000D2D2027628F
S11344E0273A207365742049324320626175642041
S11344F0726174652E0A000D2D202763273A2073FC
S1134500657420535049206261756420726174653A
S11345102E0A000D2D202764273A20736574205538
S1134520415254206261756420726174652E0A00E0
S11345300D2D202765273A20736574206465666114
S1134540756C742072656769737465722061646444
S1134550726573732E0A000D2D202766273A207783
S113456072697465206279746520746F2073656E56
S1134570736F722E0A000D2D202767273A2073656A
S1134580742064656661756C7420535353555050A0
S11345904C592E0A000D2D202768273A20706F777A
S11345A06572646F776E20636F6D6D616E642074E5
S11345B06F20616C6C2073656E736F72732E0A00CA
S11345C00D2D202769273A207365742070756C6C53
S11345D02D757020656E61626C652076616C756501
S11345E02E0A000D2D20276A273A20726570656116
S11345F074207265616420726567203078253032DA
S113460078206F6E2073656E736F72202325642E7D
S11346100A000D2D20276B273A20736C65657020E6
S1134620756E74696C2072657365742E0A000D2DA5
S113463020276C273A2073656E642072657065616B
S11346407465642062797465206F6E204932432E4C
S11346500A000D2D20276D273A2073656E642072A1
S1134660657065617465642062797465206F6E207D
S11346705350492E0A000D2D20276E273A20656ECF
S113468061626C65205353535550504C592E0A00A7
S11346900D2D20276F273A2064697361626C6520B1
S11346A05353535550504C592E0A000D2D2027704A
S11346B0273A2073776974636820746F20564C50CE
S11346C052206D6F64652E0A000D2D202772273A43
S11346D02073776974636820746F2052554E206D7F
S11346E06F64652E0A000D2D202773273A20706F02
S11346F077657220757020616C6C2073656E736FC2
S113470072732E0A000D2D202774273A2064756DCC
S1134710702070726F636573736F72207374617449
S1134720652E0A000D2D202775273A207365742005
S113473049324320616464726573732E0A000D2D3F
S1134740202778273A2064697361626C6520535787
S11347504420616E64207370696E20666F7220312C
S11347603020736563732E0A000D2D20277A273AB3
S11347702064756D7020616C6C2073656E736F724C
S11347807320646174612E0A000D456E7465722095
S113479073656C656374696F6E3E20000D0A094F82
S11347A076657272696465205353535550504C5961
S11347B020696E206D562028652E672E2C20273107
S11347C038303027293E20000D0A094F7665727271
S11347D0696465205353535550504C592073657484
S11347E020746F202564206D56000D0A20436173E8
S11347F065206C000D0A094E4F54453A20466972F3
S1134800737420706F7765722073656E736F727343
S113481020616E6420656E61626C65204932430AD2
S11348200A000D0A09456E61626C696E672049329F
S1134830432070696E732E2E2E0A000D0A094865F6
S113484078206F7220636F6E766572746564206D74
S11348506F64653F2028276827206F72202763270D
S1134860293E20000D0A095365742074686520747C
S1134870696D652064656C6179206265747765652E
S11348806E20656163682072756E20696E206D69A3
S11348906C6C697365636F6E64732028652E672E74
S11348A02C20273132333427293E20000D0A0944B5
S11348B0656C6179206265747765656E20726561E7
S11348C06420626174636865732073657420746F17
S11348D0202564206D696C6C697365636F6E647305
S11348E02E0A0A000D095061796C6F616473206DA2
S11348F0616B6520726F636B657473206D6F726595
S1134900207468616E206A757374206669726577B5
S11349106F726B732E000D09496E76616C696420A9
S113492073656C656374696F6E2027256327202186
S11349300A00FF00202D2D2D2D2C0020307825304D
S11349403278203078253032782C005465726D69C5
S11349506E616C0052545400534547474552003031
S11349603132333435363738394142434445460AC7
S113497041525241593A200025642C20000A58091A
S11349804D45414E3A2025640956415249414E4312
S1134990453A2025640A0059094D45414E3A2025DF
S11349A0640956415249414E43453A2025640A0060
S11349B05A094D45414E3A20256409564152494110
S11349C04E43453A2025640A005374617274696E3B
S11349D067207065646F6D657465720A0A00898A60
S11349E00060064008001F1D1F1E1F1E1F1F1E1FE4
S11349F01E1F000000001F003B005A0078009700B3
S1134A00B500D400F300110130014E01001F1C1F3A
S1134A101E1F1E1F1F1E1F1E1F00000000D003406C
S1134A2014150000006007400050064000F00F40DD
S1134A3040F00F400090044000A004401E1F0000FE
S1134A401400010016000200180003001A000400FC
S1134A501C0005001E0009002000060022000A00B8
S1134A602400070028000C002C0010003000110066
S1134A703800120040000F004400130048001400E6
S1134A8050001500580019006000160068001A0054
S1134A907000170080001C0090001D00A0001E0084
S1134AA0C0002200E0001F00F000230000012400E9
S1134AB0200125004001260080012A00C0012700B2
S1134AC0E0012B0000022C0040022D0080022E0089
S1134AD00003320080032F00C003330000043400BD
S1134AE0800435000005360000063A000007370050
S1134AF080073B0000083C0000093D00000A3E001E
S1134B00000C3F00000F0000F8B5C046F8BC08BC1C
S1134B109E467047F8B5C046F8BC08BC9E46704730
S10B4B2088B9FF7F01000000C9
S1074B2885040000FC
S1074B2C5904000024
S1134B3004FEFF1F00000000000000000000000051
S1134B400000000000000000000000000000000061
S1134B500000000000000000000000000000000051
S1134B600000000000000000000000000000000041
S1134B700000000000000000000000000000000031
S1134B800000000000000000000000000000000021
S1134B900000000068FEFF1F7D0E000003000000FF
S1134BA000000000C8000000050000000A0000002A
S1134BB001000000C8000000010000000100000026
S1134BC00101000001010000FFFFFFFF00000000E1
S1134BD000000000010000000100000001000000CE
S1134BE001000000010000000200000001000000BC
S1134BF001000000050000000100000001000000A9
S1134C000800000001000000010000000C0000008A
S1134C10010000000100000000010000010000008C
S1134C200100000005010000010000000100000077
S1134C30060100000100000001000000070100005F
S1134C4001000000010000000A0100000100000052
S1134C50010000000B010000010000000100000041
S1134C600D0100000100000001000000020100002D
S1134C700100000001000000030100000100000029
S1134C800100000004010000010000000100000018
S1134C900600000001000000010000000700000001
S1134CA001000000010000000900000001000000F4
S1134CB001000000FFFFFFFF0000000000000000F3
S1134CC001010000000000000001000000000000DD
S10B4CD00000010000010000D6
S903051DDA
